:020000040800F2
:10000000502B002029020008A9080008CB06000890
:10001000A5080008750300089B12000800000000F6
:10002000000000000000000000000000E90E0008D1
:10003000D905000800000000570C00080110000856
:10004000430200084302000843020008430200087C
:10005000430200084302000843020008430200086C
:10006000430200084302000843020008430200085C
:10007000430200084302000843020008430200084C
:10008000430200084302000843020008430200083C
:10009000430200084302000843020008430200082C
:1000A000430200084302000843020008430200081C
:1000B000430200084302000843020008430200080C
:1000C00043020008430200084302000843020008FC
:1000D000430200086D1000084302000843020008B4
:1000E00043020008430200084302000843020008DC
:1000F00043020008430200084302000843020008CC
:1001000043020008430200084302000843020008BB
:1001100043020008430200084302000843020008AB
:10012000430200084302000843020008430200089B
:10013000430200084302000843020008430200088B
:10014000430200084302000843020008430200087B
:10015000430200084302000843020008430200086B
:10016000430200084302000843020008430200085B
:10017000430200084302000843020008430200084B
:10018000430200084302000800F002F800F03CF8C7
:100190000AA090E8000C82448344AAF10107DA45E2
:1001A00001D100F031F8AFF2090EBAE80F0013F0F8
:1001B000010F18BFFB1A43F001031847903D0000E0
:1001C000B03D0000103A24BF78C878C1FAD8520771
:1001D00024BF30C830C144BF04680C6070470000C1
:1001E0000023002400250026103A28BF78C1FBD840
:1001F000520728BF30C148BF0B6070471FB501F0E0
:10020000EDFA1FBD10B510BD00F06EF81146FFF7F6
:10021000F5FF01F0B5F800F0A0F803B4FFF7F2FF26
:1002200003BC01F03CF8000009488047094800473A
:10023000FEE7FEE7FEE7FEE7FEE7FEE7FEE7FEE796
:10024000FEE7FEE704480549054A064B70470000F3
:10025000051000088901000850250020502B0020BF
:100260005027002050270020704700000FB4044999
:1002700010B503AA029800F009F810BC5DF814FB51
:10028000080000207047704770477047074B70B5F3
:100290000D467B4400F011F80446284600F020F893
:1002A00010B14FF0FF3070BD204670BDCF10000080
:1002B00001694A1C02610878704700B58FB0CDE92A
:1002C00001310021059105497944CDE9031011461A
:1002D000684600F02EF80FB000BD0000E5FFFFFFFC
:1002E000007B00F080007047754600F03FF8AE4696
:1002F00005006946534620F00700854618B020B532
:10030000FFF7A0FFBDE820404FF000064FF00007C8
:100310004FF000084FF0000B21F00701AC46ACE8AD
:10032000C009ACE8C009ACE8C009ACE8C0098D461A
:1003300070472DE9F04106460024D6E90170F568C2
:100340008046304603E04146B847641C3046A84723
:100350000028F8D12046BDE8F08110B50446AFF37F
:1003600000802046BDE81040FFF757BF00487047A7
:10037000F024002000BFFEE70246094B9A4201D25A
:10038000084801E00648103801F000531BB1064B45
:100390000B40C36002E0044B0B40836070470000D9
:1003A00010640240006002407D0F7D0F21B10268A1
:1003B00042F00102026003E0026822F001020260E2
:1003C00070470000016821F0010101600021016017
:1003D00041608160C1600161212141614A498842D7
:1003E00004D13D21484A103A91608CE046491831C9
:1003F000884205D14FF47461434A103A916082E01B
:1004000041493031884205D14FF474113E4A103AC7
:10041000916078E03C494831884205D14FF07461E1
:10042000394A103A91606EE037496031884204D110
:100430003649354A103AD16065E03349783188420F
:1004400004D13349304A103AD1605CE02E499031F2
:10045000884204D12F492C4A103AD16053E02A49EE
:10046000A831884205D14FF03D51274A103AD1605A
:1004700049E02949884204D13D21274A083A1160C0
:1004800041E025491831884205D14FF47461224A70
:10049000083A116037E020493031884205D14FF4E5
:1004A00074111D4A083A11602DE01B4948318842F9
:1004B00005D14FF07461184A083A116023E01649DB
:1004C0006031884204D11149134A121F11601AE0A9
:1004D00011497831884204D10D490F4A121F116029
:1004E00011E00D499031884204D10A490A4A121F8D
:1004F000116008E00849A831884204D14FF03D510D
:10050000054A121F11607047106002403D00002034
:10051000400F002000003D201064024001460020F2
:100520000A6802F001020AB1012000E000207047D1
:100530000146486880B2704730B503460A4600203D
:1005400000240B4DAB4201D20A4901E008491039A1
:1005500002F000550DB14C6800E00C68064D2C40CF
:1005600004EA02050DB1012000E0002030BD0000CA
:1005700010640240006002407D0F7D0F10B5002224
:100580000268134B1A40CC680B6823434C69234321
:100590008C692343CC6923430C6A23434C6A23436D
:1005A0008C6A23434C6B23438C6B23431A430260B6
:1005B000426922F00702D1E90B3423431A43426116
:1005C0000B6943604B6883608B68C36010BD00009B
:1005D0003F801CF0416070477047F0B50A4600212B
:1005E0000023002400BF3DE0012505FA01F3156852
:1005F00005EA03049C4234D105684F000326BE403F
:10060000B543056015794E00B54006683543056071
:100610001579012D02D01579022D16D185684F006C
:100620000326BE40B543856055794E00B5408668C7
:1006300035438560456801268E40B5434560456871
:1006400096798E40B6B235434560C5684F000326A3
:10065000BE40B543C560D5794E00B540C668354348
:10066000C560491C1029BFD3F0BDF0B5002300249C
:100670004D07ED0E02FA05F3CE1000F1200555F8F6
:1006800026504E07F70E0F26BE40B543CF1000F19F
:10069000200646F82750CE1000F1200555F82650C8
:1006A00045EA0304CE1000F1200545F82640F0BDD0
:1006B0000246002013690B400BB1012000E000202E
:1006C0007047418370470183704700BFFEE7000019
:1006D0001CB50121112000F0BFFA18200090002065
:1006E0008DF8040003208DF8050001208DF8070027
:1006F00069460648FFF771FF0120009002208DF83F
:10070000070069460248FFF768FF1CBD0010024061
:100710000000024010B5044614B1012023490870BE
:100720002248007858B310212148FFF7C1FF50B18B
:1007300008211F48FFF7BCFF28B101211D48FFF722
:10074000B7FF01281BD10A2000F0CAFD002017497D
:10075000087010211648FFF7ABFF08B9012010BD43
:1007600008211348FFF7A4FF08B90220F7E7012189
:100770001048FFF79DFF012815D10420EFE7102155
:100780000B48FFF795FF01280DD108210848FFF716
:100790008FFF012807D101210648FFF789FF10B913
:1007A0000120024908700020D9E700000400002061
:1007B00000100240000002401CB50121084600F074
:1007C0004BFAC020009001208DF8040000208DF825
:1007D000060003208DF8050001208DF8070069460A
:1007E0000348FFF7FAFEC0210148FFF76CFF1CBD6C
:1007F000000002402DE9F04190B004460D46174636
:100800001E46DDF858801B48844204D90121880522
:1008100000F022FA03E00121480500F01DFA20460D
:10082000FFF7D0FD00BF2046FFF778FE0028FAD181
:1008300001950297039640200490CDF81480002083
:1008400006904FF4806007900020089009900A906D
:100850004FF480300B9000200C9003200D9000206E
:100860000E900F9001A92046FFF788FE10B0BDE85A
:10087000F08100000064024070B504460D4600217E
:100880002046FFF793FD00BF2046FFF747FE0028F4
:10089000FAD129462046FFF79DFE01212046FFF7A9
:1008A00085FD70BD00BFFEE77047000070B50021F8
:1008B00000230F22C4781CB3174C246804F4E064AE
:1008C000C4F5E064C4F30721C1F10404E3B20A41B2
:1008D00044789C40E1B28478144021430C07210EF7
:1008E0000E4C05786155047804F01F050124AC40D6
:1008F00005786D11AD0005F1E025C5F8004109E06E
:10090000047804F01F050124AC40054D06787611EB
:1009100045F8264070BD00000CED00E000E400E06A
:1009200080E100E002490143024A11607047000083
:100930000000FA050CED00E070B500240CE0002585
:1009400006E00020074901EBC5010855681CC5B247
:10095000802DF6DB601CC4B2082CF0DB00F07CF8C4
:1009600070BD00002000002070B50B46CE1701EBD3
:100970005676C6F3C702CE1701EB5676F610A1EBFA
:10098000C606F4B20123A340DDB20E4B03EBC00355
:100990009B5CDB430B4E06EBC006B354094B03EBE9
:1009A000C0039B5C2B43074E06EBC006B354054BBC
:1009B00003EBC0039B5CDB43024E06EBC006B35463
:1009C00070BD00002000002070B50A46CE1701EB74
:1009D0005676C6F3C703CE1701EB5676F610A1EB99
:1009E000C606F4B20122A240D5B2054A02EBC0020B
:1009F000D25C2A43024E06EBC006F25470BD0000E2
:100A0000200000201CB50121022000F025F94FF440
:100A1000E050009001208DF8040000208DF80600C1
:100A200002208DF8050069460448FFF7D6FD4FF413
:100A3000E0510248FFF747FE1CBD000000040240E1
:100A400010B50246012000E050430B1EA1F1010445
:100A5000E1B2F9D110BD000070B500241CE004F132
:100A6000B000C1B2002000F019FE0021084600F0DD
:100A700015FE1021002000F011FE002508E00848B6
:100A800000EBC500015D012000F008FE681CC5B246
:100A9000802DF4DB601CC4B2082CE0DB70BD0000CC
:100AA000200000202DE9FF4F81B080460E461C46F5
:100AB00000962046E31704EB5373DB1021464FEA00
:100AC000E47C04EB5C7C4FEAEC0CA4EBCC0CBCF1BA
:100AD000000F02D04FF0010C01E04FF0000C634416
:100AE000224604EBD27C4FEA6C0C03FB0CF303F0C0
:100AF000FF0B03982038C7B2002547E00C2C07D124
:100B000007EB4700234901EB800010F805A014E033
:100B1000102C05D1204800EB071010F805A00CE0C0
:100B2000182C07D107EBC7001C4901EB800010F817
:100B300005A002E005B0BDE8F08F4FF000091FE00E
:100B40000AF0800020B131464046FFF73DFF03E048
:100B500031464046FFF708FF4FEA4A604FEA106A05
:100B6000701CC6B20098301AA04205D1009E08F150
:100B7000010000F0FF0806E009F1010000F0FF09A4
:100B8000B9F1080FDCDB00BF681CC5B25D45B5DB01
:100B900000BFCFE76E270008E22B0008D231000823
:100BA0002DE9F04F06468A4691461F46099C0025CE
:100BB0002CE0781B401EC1B20A20FFF741FFB9FBB1
:100BC000F0F00A21B0FBF1F201FB1208B8F1000FBE
:100BD0000CD1A34604EBDB71491001FB0561C8B2DF
:100BE000234630225146FFF75DFF0DE0A34604EB9C
:100BF000DB71491001FB0561C8B208F13001CAB2CE
:100C000023465146FFF74EFF681CC5B2BD42D0DBFC
:100C1000BDE8F08FF0B506460F4614461D4613E0BA
:100C200022782B4639463046FFF73CFF284605EB35
:100C3000D07106EB6101CEB2C5F18000B04202DA9C
:100C40000026B81CC7B2641C2078202802DB20785C
:100C50007E28E5DDF0BD704729B1064A12680243DF
:100C6000044B1A6004E0034A12688243014B1A6085
:100C7000704700003038024029B1064A126802432A
:100C8000044B1A6004E0034A12688243014B1A6065
:100C9000704700004038024029B1064A12680243FA
:100CA000044B1A6004E0034A12688243014B1A6045
:100CB000704700002038024029B1064A12680243FA
:100CC000044B1A6004E0034A12688243014B1A6025
:100CD0007047000044380240F0B500210022002493
:100CE000022500260223324F3F6807F00C0121B194
:100CF000042905D0082937D105E02E4F076036E0DA
:100D00002D4F076033E02A4F3F1F3F68C7F38056DF
:100D1000274F3F1F3F6807F03F036EB1264FB7FBD9
:100D2000F3F7DFF88CC0ACF1040CDCF800C0CCF3B6
:100D3000881C07FB0CF40CE01E4FB7FBF3F7DFF841
:100D400070C0ACF1040CDCF800C0CCF3881C07FBCD
:100D50000CF4174F3F1F3F68C7F301477F1C7D000E
:100D6000B4FBF5F7076002E0124F076000BF00BF59
:100D70000F4F3F6807F0F0010909104F7A5C0768D0
:100D8000D74047600A4F3F6807F4E051890A0B4F8C
:100D90007A5C4768D7408760054F3F6807F4604139
:100DA000490B064F7A5C4768D740C760F0BD00002A
:100DB000083802400024F40000127A000E000020DF
:100DC00000B587B001210220FFF746FF012188030B
:100DD000FFF752FF4FF42040059002208DF81800D5
:100DE00000208DF81A0002208DF8190005A920486E
:100DF000FFF7F3FB4FF420411D48FFF764FC052289
:100E00000D211B48FFF731FC05220F211848FFF781
:100E10002CFC01218803FFF73FFF00214FF48040A5
:100E2000FFF73AFF0020ADF800004FF48270ADF8F4
:100E300002000020ADF804000220ADF806000120F9
:100E4000ADF808004002ADF80A003820ADF80C00FB
:100E50000020ADF80E000720ADF8100069460548E7
:100E600000F024F80121034800F006F807B000BDA7
:100E7000000402400038004021B1028842F04002E4
:100E8000028004E002884FF6BF731A400280704768
:100E90000246002013890B400BB1012000E0002026
:100EA00070470146888970478181704710B50022DC
:100EB000028802F441520B884C8823438C882343D8
:100EC000CC8823430C8923434C8923438C892343B7
:100ED000CC8923431A430280838B4FF2FF74234053
:100EE00083830B8A038210BD704700000CB500207D
:100EF000019000903448006840F480303249086026
:100F000000BF3148006800F4003000900198401C98
:100F10000190009818B90198B0F5A04FF1D12A4876
:100F2000006800F4003010B10120009001E00020C2
:100F300000900098012846D123484030006840F0D6
:100F400080502149403108602048006840F440400A
:100F50001E4908601C48083000681B4908310860B9
:100F60000846006840F4004008600846006840F405
:100F7000A05008601648091F0860081F006840F06C
:100F80008070091F086000BF0F48006800F0007003
:100F90000028F9D040F205700E4908600A48083070
:100FA000006820F00300084908310860084600681E
:100FB00040F00200086000BF03480830006800F0FD
:100FC0000C000828F8D10CBD003802400070004029
:100FD00008544007003C0240042808D14FF0E021AB
:100FE000096941F004014FF0E022116107E04FF080
:100FF000E021096921F004014FF0E02211617047FE
:101000007047000010B51548006840F4700013499F
:1010100008601348006840F0010011490860002092
:101020000F49083108600E4800680E4908400C4915
:1010300008600D48091D0860081F006820F4802022
:10104000091F0860002006490C310860FFF74EFFB9
:101050004FF0006001498039086010BD88ED00E064
:1010600000380240FFFFF6FE1030002410B540F2B9
:1010700025511D4800F053F810B31B4800F008F943
:10108000C4B21A48008800F40040C8B91748008864
:1010900000F4804060B10A2C03D00020134908807E
:1010A00020E01248008840F400401049088019E010
:1010B0000D2C06D10D48008840F480400B49088073
:1010C00010E00A480088C0F30D0009490C54074895
:1010D0000088401C0549088008460088C72801DDB3
:1010E0000020088010BD0000001001400C0000200E
:1010F0002824002021B1828942F40052828104E038
:1011000082894DF6FF731A40828170471AB1838A33
:101110000B43838202E0838A8B438382704770B5DE
:101120000246002400230025002040F66A16B14242
:1011300000D100BFC1F3421501F01F03012606FADA
:1011400003F3012D02D19689334006E0022D02D12E
:10115000168A334001E0968A33400C12012606FAC3
:1011600004F41688344013B10CB1012000E00020D3
:1011700070BDF0B50346002400260025002040F68F
:101180006A17B94200D100BF1846C1F3421401F0FA
:101190001F06012707FA06F5012C01D10C3004E0E7
:1011A000022C01D1103000E014301AB107682F432F
:1011B000076002E00768AF430760F0BD2DE9FF4715
:1011C00005460E460024A14600BFA046B08900B1E6
:1011D00000BF2C8A24F44054F08804432C82AC894C
:1011E00041F20C608443B088318908437189084317
:1011F0000443AC81AC8A24F44074B0890443AC82CB
:101200006846FFF769FD2048854202D01F488542A5
:1012100002D1DDF80C9001E0DDF80890A88900F417
:10122000004040B109EBC90000EB091031684900EA
:10123000B0FBF1F707E009EBC90000EB09103168DA
:101240008900B0FBF1F76420B7FBF0F0040120093E
:10125000642101FB1078A88900F4004040B13220DD
:1012600000EBC800B0FBF1F000F00700044308E019
:10127000322000EB08106421B0FBF1F000F00F0009
:1012800004432C81BDE8FF87001001400014014099
:1012900001468888C0F30800704700BFFEE700BF22
:1012A0007047000010B504466FF00400FFF794FE8D
:1012B000E11704EB5171C1F3C701074A11701046E1
:1012C000007800EB4001C1EBC0104FF6FF7101EA5E
:1012D000C0000249088010BD00000020020000206C
:1012E00070B504464FF4077094FBF0F0C6B24FF4AB
:1012F000077094FBF0F100FB114085B205E04FF45C
:10130000077000F009F8701EC6B2002EF7D115B1B3
:10131000284600F001F870BD0146114A12884A4380
:101320004FF0E0235A6100229A611A46126942F096
:1013300001021A6100BF4FF0E022106900F00102C3
:101340001AB100F48032002AF5D04FF0E022126981
:1013500022F001024FF0E0231A6100229A617047E7
:101360000200002000BF054A128802F04002002A55
:10137000F9D0C2B2014B9A807047000000100140C2
:101380002DED028B82B0002500269FED600AB0EEA5
:10139000408A4FF4A060FFF7C5FAA820FFF782FF4C
:1013A0004FF4E13000F0C4F9FFF706FAFFF790F9C7
:1013B000FFF706FD00F0E4F80C2355A200210846D3
:1013C000FFF728FCFFF748FB42F20800554B564A4E
:1013D000010600905548FFF70DFA1C27002416E07F
:1013E000BD420BDB26B10A204E49085500250CE012
:1013F0000D204C490855701CC6B206E000264C482A
:10140000405D48490855681CC5B2601C84B242F270
:1014100008008442E4DB002476E00020FFF77AF93C
:101420000546012D60D143A0FEF720FF0C2345A205
:1014300019460020FFF7EEFB0C2347A218210020DD
:10144000FFF7E8FBFFF708FB012280213648001F69
:10145000FFF75CFE42F208013448FFF70DFA31E075
:101460004FF020513148FFF767F828B14FF0205175
:101470002E48FEF781FF26E02C48FFF759F800EED2
:10148000100AB8EE400AB0EE408ADFED350A88EE69
:10149000200AF7EE000A30EEC00AB0EE408A9FED57
:1014A000310A28EE000AB0EE408A0C200323BCEE7D
:1014B000C80A10EE102A182100900020FFF770FBD8
:1014C000FFF7CAFACCE700BF0C20032364221821DF
:1014D00000900020FFF764FB0C2323A21946002094
:1014E000FFF798FBFFF7B8FA601C84B20A20FFF7F9
:1014F000F7FE142C08D12148006808B9012000E04B
:1015000000201E490860002487E70000000000005A
:1015100053544D3332463420444D412054455354A6
:10152000000000002004002004100140B8640240C4
:101530002E3F00080D0A444D4120444154413A0DCC
:101540000A0000005374617274205472616E7369F2
:101550006D69742E2E2E2E00202020250000000004
:10156000002000460000C8425472616E73696D69C4
:10157000742046696E697368656421009802404270
:1015800010B5FFF73FFAC820FFF7AAFE4FF400613D
:101590003E48FFF796F8C820FFF7A2FE4FF400611F
:1015A0003A48FFF790F8AE21002000F077F80021CC
:1015B000084600F073F81021002000F06FF8402179
:1015C000002000F06BF88121002000F067F8CF21A7
:1015D000002000F063F8A121002000F05FF8C8218E
:1015E000002000F05BF8A621002000F057F8A821A9
:1015F000002000F053F83F21002000F04FF8D321E5
:10160000002000F04BF80021084600F047F8D521F3
:10161000002000F043F88021002000F03FF8D9219D
:10162000002000F03BF8F121002000F037F8DA212B
:10163000002000F033F81221002000F02FF8DB2109
:10164000002000F02BF84021002000F027F8202196
:10165000002000F023F80221002000F01FF88D2167
:10166000002000F01BF81421002000F017F8A4213E
:10167000002000F013F8A621002000F00FF8AF21A1
:10168000002000F00BF8FFF757F910BD00040240EE
:1016900010B50446204600F021F810BD70B505468F
:1016A0000C464FF480510C48FFF70BF82DB14FF466
:1016B00080610948FFF707F804E04FF480610648AD
:1016C000FEF7FFFF2046FFF7E3FF4FF4805102488B
:1016D000FEF7F9FF70BD00000004024070B505463A
:1016E000002405E0601CC4B2C82C01DD002070BDE0
:1016F00002210E48FFF7CCFB0028F3D029460B4807
:10170000FFF7D2FB002405E0601CC4B2C82C01DD49
:101710000020ECE701210548FFF7BAFB0028F3D0D1
:101720000248FFF7BEFBC0B2E1E70000003800400E
:1017300010B588B0044601210846FFF78DFA012153
:101740001020FFF7B9FA072209212248FEF78DFF82
:1017500007220A211F48FEF788FF4FF4C060069059
:1017600002208DF81C008DF81D0000208DF81E0051
:1017700001208DF81F0006A91648FEF72EFF0294DF
:101780000020ADF80C00ADF80E00ADF81000ADF87B
:1017900014000C20ADF8120002A90F48FFF70EFD4F
:1017A00001210D48FFF7A6FC012240F225510A480D
:1017B000FFF7DFFC25208DF8040003208DF80500DD
:1017C0008DF8060001208DF8070001A8FFF76EF8DC
:1017D00008B010BD00000240001001404FF0407002
:1017E000E1EE100A70470000000000000000002F2A
:1017F000000000000700070000147F147F1400247D
:101800002A7F2A12006264081323003649552250A9
:1018100000000503000000001C22410000004122DE
:101820001C000014083E08140008083E08080000C8
:1018300000A06000000808080808000060600000C0
:10184000002010080402003E5149453E0000427F3E
:101850004000004261514946002141454B3100188A
:1018600014127F10002745454539003C4A4949304C
:101870000001710905030036494949360006494906
:10188000291E000036360000000056360000000811
:1018900014224100001414141414000041221408EE
:1018A00000020151090600324959513E007C1211D3
:1018B000127C007F49494936003E41414122007F68
:1018C0004141221C007F49494941007F0909090122
:1018D000003E4149497A007F0808087F0000417FA7
:1018E0004100002040413F01007F08142241007F59
:1018F00040404040007F020C027F007F0408107FC0
:10190000003E4141413E007F09090906003E415128
:10191000215E007F091929460046494949310001E5
:10192000017F0101003F4040403F001F2040201F39
:10193000003F4038403F00631408146300070870FC
:10194000080700615149454300007F4141000055AF
:101950002A552A55000041417F000004020102047B
:101960000040404040400000010204000020545468
:101970005478007F484444380038444444200038B8
:101980004444487F00385454541800087E0901022A
:101990000018A4A4A47C007F080404780000447DFF
:1019A0004000004080847D00007F1028440000003B
:1019B000417F4000007C04180478007C080404780F
:1019C00000384444443800FC2424241800182424FB
:1019D00018FC007C080404080048545454200004F7
:1019E0003F444020003C4040207C001C2040201C04
:1019F000003C4030403C004428102844001CA0A07B
:101A0000A07C004464544C44141414141414FEFFB9
:101A1000028002800380038002800280FEFF0000BB
:101A200000F800000000000000333000000000104B
:101A30000C06100C0600000000000000000040C072
:101A40007840C0784000043F04043F040400007064
:101A500088FC08300000001820FF211E0000F0085C
:101A6000F000E018000000211C031E211E0000F001
:101A70000888700000001E21232419272110101649
:101A80000E00000000000000000000000000000048
:101A900000E01804020000000007182040000002C7
:101AA0000418E0000000004020180700000040403B
:101AB00080F0804040000202010F0102020000009D
:101AC00000F0000000000101011F01010100000001
:101AD00000000000000080B0700000000000000066
:101AE00000000000000000010101010101010000EF
:101AF0000000000000000030300000000000000086
:101B0000000080601804006018060100000000E07A
:101B100010080810E000000F102020100F00001027
:101B200010F8000000000020203F2020000000707E
:101B30000808088870000030282422213000003076
:101B40000888884830000018202020110E0000006E
:101B5000C02010F8000000070424243F240000F8EF
:101B60000888880808000019212020110E0000E0D4
:101B7000108888180000000F112020110E00003876
:101B80000808C83808000000003F0000000000708E
:101B9000880808887000001C222121221C0000E017
:101BA00010080810E0000000312222110F00000090
:101BB00000C0C00000000000003030000000000045
:101BC00000800000000000008060000000000000B5
:101BD000804020100800000102040810200040404E
:101BE0004040404040000404040404040400000891
:101BF0001020408000000020100804020100007046
:101C000048080808F0000000003036010000C0302D
:101C1000C828E810E0000718272423140B00000050
:101C2000C038E0000000203C23020227382008F8DA
:101C3000888888700000203F202020110E00C030CE
:101C4000080808083800071820202010080008F8A5
:101C500008080810E000203F202020100F0008F89E
:101C60008888E8081000203F20202320180008F86A
:101C70008888E8081000203F200003000000C030E2
:101C800008080838000007182020221E020008F863
:101C900008000008F808203F210101213F2000082A
:101CA00008F8080800000020203F20200000000065
:101CB0000808F8080800C08080807F00000008F84D
:101CC00088C028180800203F20012638200008F886
:101CD000080000000000203F20202020300008F8ED
:101CE000F800F8F80800203F003F003F200008F807
:101CF00030C00008F808203F200007183F00E0101F
:101D000008080810E0000F10202020100F0008F82D
:101D100008080808F000203F210101010000E01040
:101D200008080810E0000F18242438504F0008F865
:101D3000888888887000203F2000030C30200070C5
:101D40008808080838000038202121221C001808C3
:101D500008F8080818000000203F2000000008F8DC
:101D600008000008F808001F202020201F00087825
:101D7000880000C83808000007380E010000F80885
:101D800000F80008F800033C0700073C03000818AF
:101D900068808068180820302C03032C3020083815
:101DA000C800C83808000000203F200000001008CC
:101DB0000808C83808002038262120201800000014
:101DC00000FE020202000000007F40404000000CC4
:101DD00030C000000000000000010638C000000212
:101DE0000202FE000000004040407F0000000000B2
:101DF00004020202040000000000000000000000D5
:101E000000000000000080808080808080800002D0
:101E100002040000000000000000000000000000BC
:101E20008080808000000019242222223F2008F8B0
:101E3000008080000000003F112020110E000000F3
:101E4000008080800000000E112020201100000082
:101E500000808088F800000E112020103F20000034
:101E6000808080800000001F222222221300008038
:101E700080F0888888180020203F20200000000083
:101E8000808080808000006B94949493600008F8B8
:101E9000008080800000203F210000203F20008043
:101EA0009898000000000020203F20200000000043
:101EB00000809898000000C08080807F000008F8B3
:101EC000000080808000203F24022D302000000888
:101ED00008F8000000000020203F20200000808043
:101EE000808080808000203F20003F20003F808055
:101EF000008080800000203F210000203F20000063
:101F0000808080800000001F202020201F00808013
:101F100000808000000080FFA12020110E00000042
:101F2000008080808000000E112020A0FF80808033
:101F300080008080800020203F21200001000000E0
:101F400080808080800000332424242419000080B5
:101F500080E0808000000000001F202000008080C2
:101F6000000000808000001F202020103F20808083
:101F700080000080808000010E3008060100808013
:101F80000080008080800F300C030C300F00008038
:101F90008000808080000020312E0E312000808063
:101FA00080000080808080818E7018060100008093
:101FB0008080808080000021302C222130000000B1
:101FC0000000807C020200000000003F4040000052
:101FD0000000FF00000000000000FF000000000201
:101FE000027C800000000040403F0000000000062E
:101FF000010102020404000000000000000000FCD7
:10200000FC0C0CFCFC00003F3F30303F3F00000068
:10201000000000FCFC0000000000003F3F00008CBE
:102020008C8C8CFCFC00003F3F3131313100008C46
:102030008C8C8CFCFC0000313131313F3F0000FCC6
:10204000FC8080FCFC0000010101013F3F0000FC1E
:10205000FC8C8C8C8C0000313131313F3F0000FC16
:10206000FC8C8C8C8C00003F3F31313F3F00000CDA
:102070000C0C0CFCFC0000000000003F3F0000FCCA
:10208000FC8C8CFCFC00003F3F31313F3F0000FCEA
:10209000FC8C8CFCFC0000313131313F3F000000F2
:1020A000006060000000000000060600000000F86C
:1020B000F818181818181818181818F8F80000FF49
:1020C000FF00000000000000000000FFFF0000FF14
:1020D000FF00000000000000000000FFFF00001FE4
:1020E0001F181818181818181818181F1F000000A3
:1020F0000000000000F8F8000000000000000000F0
:102100000000000000FFFF000000000000000000D1
:102110000000000000FFFF000000000000000000C1
:1021200000000000001F1F00000000000000001859
:102130001818181818181818181818F8F800008027
:102140008080808080808080808080FFFF0000FF12
:10215000FF01010101010101010101010100001F55
:102160001F18181818181818181818181800001818
:102170001818181818181818181818F8F8000080E7
:102180008080808080808080808080FFFF000001D0
:102190000101010101010101010101FFFF0000181E
:1021A00018181818181818181818181F1F0000F8F1
:1021B000F800000000000000000000F8F80000FF38
:1021C000FF80808080808080808080FFFF00000111
:1021D0000101010101010101010101FFFF000000F6
:1021E00000000000000000000000001F1F0000F8B9
:1021F000F81818181818181818181818180000FFC8
:10220000FF808080808080808080808080000001CE
:102210000101010101010101010101FFFF0000189D
:1022200018181818181818181818181F1F0000F870
:10223000F81818181818181818181818180000FF87
:10224000FF8080808080808080808080800000FF90
:10225000FF01010101010101010101FFFF00001F58
:102260001F181818181818181818181F1F00001809
:102270001818181818181818181818F8F800000066
:102280000000000000000000000000FFFF00000050
:102290000000000000000000000000FFFF00000040
:1022A00000000000000000000000001F1F0000F8F8
:1022B000F818181818181818181818F8F80000FF47
:1022C000FF80808080808080808080FFFF0000FF12
:1022D000FF01010101010101010101FFFF00001FD8
:1022E0001F181818181818181818181F1F0000F8A9
:1022F000F818181818181818181818F8F80000FF07
:10230000FF80808080808080808080FFFF000001CF
:102310000101010101010101010101FFFF0000189C
:1023200018181818181818181818181F1F00000067
:10233000000000000000000000000000000000009D
:102340000000001F1F1F1F1F0000000000000000F2
:10235000000000F0F0F0F0F00000000000000000CD
:102360000000000101010101000000000000FF0168
:10237000010101010101010101010101010101014D
:10238000010101010101010101010101010101013D
:10239000010101010101010101010101010101012D
:1023A000010101010101010101010101010101011D
:1023B000010101010101010101010101010101010D
:1023C00001010101010101010101010101010101FD
:1023D00001010101010101010101010101010101ED
:1023E00001010101010101010101010101FFFF00E2
:1023F00000000000000000000000000000000000DD
:102400000020440800184828C80828481800404000
:10241000FC4040FC0000F80000FC004040A0908818
:1024200084889020404000004044D820F0ACA8E8C8
:10243000B8A8E0000000C07C5454545454547C406C
:10244000400000F0909090FC909090F00000008090
:102450008888888888E8A8988C8880000000000018
:1024600000000000000000000000000000FFFF006E
:10247000000000000000000000000000000000005C
:1024800000043E01101109053F050911110008184B
:102490000F24140F00000F00003F0020222A3222D8
:1024A0003F22322A2220000020100F10282423204F
:1024B0002F282A2C00300F043D2515150D152D242D
:1024C000240000070404041F2424242720380000CB
:1024D00000000000203F000000000000000000009D
:1024E00000000000000000000000000000FFFF806E
:1024F00080808080808080808080808080808080DC
:1025000080808080808080808080808080808080CB
:1025100080808080808080808080808080808080BB
:1025200080808080808080808080808080808080AB
:10253000808080808080808080808080808080809B
:10254000808080808080808080808080808080808B
:10255000808080808080808080808080808080807B
:1025600080808080808080808080808080FFFF01EC
:10257000010101010101010101010101010101014B
:10258000018141212161010121E1E101E1E121011B
:1025900001010101010121E121212161010121212B
:1025A000E10101010101010101010101010101013B
:1025B00001010101C101010101010101010101014B
:1025C00001010101010101010101010101010101FB
:1025D00001210101010101010101010101010101CB
:1025E00001010101010101010101010101FFFF00E0
:1025F00000000000000000000000000000000000DB
:10260000000F1020241C0400203F013E013F200049
:10261000000000000000203F222227300000202080
:102620003F202000001E2525251600001E21212107
:10263000130001011F2121000000213F2221010080
:10264000001E2121211E00213F2201013E200021E8
:10265000213F202000001E21212113000000000046
:1026600000000000000000000000000000FFFF006C
:10267000000000000000000000000000000000005A
:1026800000F0080404040C00F008040408F0000042
:10269000000000000000008080000000000000003A
:1026A0000000000000000000000004FC0400000026
:1026B00000000C04FC040C0004FC040408F00000FE
:1026C000000000000000000000000000000000000A
:1026D00000000000000000000000000000000000FA
:1026E00000000000000000000000000000FFFF806C
:1026F00080808080808080808080808080808080DA
:1027000080818284848482808182848482818080AA
:1027100086868080808080858380808080808080A5
:10272000808080808080808080808487848484868C
:102730008080808487848080848784848281808074
:102740008080808080808080808080808080808089
:102750008080808080808080808080808080808079
:1027600080808080808080808080808080FF0000EA
:1027700000000000000000000000000000003F40DA
:102780000000000000000000300040003000400069
:10279000000009000BC03D000BC03D00090018C03F
:1027A00024407FE0224031800000180024C01B003C
:1027B0000D803240018003801C4027401C80074070
:1027C0000040100060000000000000000000000059
:1027D000000000001F8020404020000040202040DA
:1027E0001F8000000000090006001F80060009008D
:1027F0000000040004003F800400040000000010FA
:10280000006000000000000000000400040004005C
:102810000400040000000000004000000000000070
:102820000000002001C006003800400000001F80AA
:102830002040204020401F800000000010403FC08A
:1028400000400000000018C02140224024401840F1
:10285000000010802040244024401B800000020023
:102860000D0011003FC0014000003C802440244086
:102870002440238000001F802440244034400380F3
:1028800000003000200027C03800200000001B801E
:102890002440244024401B8000001C0022C0224011
:1028A00022401F80000000000000084000000000DF
:1028B00000000000000004600000000000000000B4
:1028C00004000A00110020804040090009000900AE
:1028D00009000900000000004040208011000A00AB
:1028E00004001800200023402400180000001F806E
:1028F0002040274029401F400000004007C0390009
:102900000F0001C0004020403FC0244024401B80F5
:1029100000001F80204020402040308000002040E8
:102920003FC0204020401F80000020403FC0244086
:102930002E4030C0000020403FC024402E00300018
:1029400000000F0010802040224033800200204011
:102950003FC0040004003FC02040204020403FC052
:102960002040204000000060202020203FC02000A8
:10297000200020403FC024400B0030C020402040B9
:102980003FC020400040004000C03FC03C0003C0AA
:102990003C003FC0000020403FC00C4023003FC02F
:1029A00020001F802040204020401F800000204049
:1029B0003FC024402400180000001F802140214017
:1029C00020E01FA0000020403FC02440260019C086
:1029D000004018C0244024402240318000003000D4
:1029E00020403FC020403000000020003F800040D9
:1029F00000403F80200020003E0001C0070038005A
:102A00002000380007C03C0007C03800000020400C
:102A100039C0060039C0204000002000384007C0FF
:102A2000384020000000304021C02640384020C0FF
:102A30000000000000007FE0402040200000000077
:102A400070000C0003800040000000004020402087
:102A50007FE0000000000000200040002000000097
:102A60000000001000100010001000100010000006
:102A7000000040000000000000000000028005404F
:102A8000054003C0004020003FC0044004400380D4
:102A900000000000038004400440064000000000E5
:102AA0000380044024403FC00040000003800540F4
:102AB000054003400000000004401FC024402440A3
:102AC0002000000002E00550055006500420204080
:102AD0003FC00440040003C000400000044027C081
:102AE00000400000000000100010041027E000006B
:102AF000000020403FC00140070004C004402040C7
:102B000020403FC000400040000007C0040007C054
:102B1000040003C00000044007C00440040003C0D8
:102B200000400000038004400440038000000410C3
:102B300007F00450044003800000000003800440BC
:102B4000045007F00010044007C0024004000400D5
:102B50000000000006400540054004C000000000E1
:102B600004001F8004400040000004000780004073
:102B7000044007C000400400070004C001800600B4
:102B80000400060001C0070001C006000000044068
:102B900006C0010006C0044000000410071004E055
:102BA0000180060004000000044005C00640044007
:102BB00000000000000004007BE040200000000056
:102BC00000000000FFF000000000000040207BE05B
:102BD00004000000000040008000400020002000B1
:102BE00040000000000000000000000000000000A5
:102BF00000000000000000001FCC000C00000000DE
:102C00000000000008003000600008003000600094
:102C10000000022003FC1E20022003FC1E200220D4
:102C2000000000000E1811043FFF10840C78000013
:102C300000000F0010840F3800C007781884007857
:102C4000000000780F8410C411240E9800E4008462
:102C5000000808006800700000000000000000008C
:102C6000000000000000000007E0181820044002E7
:102C70000000000040022004181807E000000000D7
:102C800000000240024001800FF00180024002403B
:102C900000000080008000800FF80080008000802D
:102CA00000000001000D000E000000000000000008
:102CB0000000000000800080008000800080008014
:102CC00000800000000C000C00000000000000006C
:102CD00000000000000600180060018006001800D7
:102CE0002000000007F0080810041004080807F08E
:102CF00000000000080408041FFC00040004000099
:102D0000000000000E0C10141024104411840E0C4E
:102D1000000000000C1810041104110412880C703B
:102D20000000000000E00320042408241FFC00240D
:102D3000000000001F981084110411041088107006
:102D40000000000007F008881104110418880070C2
:102D5000000000001C00100010FC13001C001000FC
:102D6000000000000E3811441084108411440E3805
:102D7000000000000700088C10441044088807F089
:102D80000000000000000000030C030C0000000025
:102D9000000000000000000101060000000000002B
:102DA0000000000000800140022004100808100408
:102DB0000000022002200220022002200220022025
:102DC00000000000100408080410022001400080E8
:102DD000000000000E001200100C106C10800F009C
:102DE000000003E00C1813E4142417C4082807D0CB
:102DF00000000004003C03C41C40074000E4001C29
:102E0000000410041FFC1104110411040E8800704A
:102E1000000003E00C1810041004100410081C102B
:102E2000000010041FFC100410041004080807F030
:102E3000000010041FFC1104110417C4100408182A
:102E4000000010041FFC1104110017C0100008003E
:102E5000000003E00C181004100410441C7800401B
:102E6000000010041FFC10840080008010841FFCF0
:102E700010040000100410041FFC100410040000D3
:102E8000000000030001100110011FFE10001000DF
:102E9000000010041FFC110403801464181C1004AB
:102EA000000010041FFC1004000400040004000CC7
:102EB000000010041FFC1F0000FC1F001FFC10047A
:102EC000000010041FFC0C04030000E010181FFC9D
:102ED000100007F00808100410041004080807F098
:102EE000000010041FFC10841080108010800F0060
:102EF000000007F0081810241024101C080A07F21C
:102F0000000010041FFC1104110011C011300E0C40
:102F1000000400000E1C11041084108410441C389E
:102F200000001800100010041FFC1004100018000E
:102F3000000010001FF810040004000410041FF823
:102F4000100010001E0011E0001C007013801C0017
:102F500010001FC0103C00E01F0000E0103C1FC02C
:102F600000001004180C163401C001C01634180CEF
:102F7000100410001C00130400FC13041C001000BB
:102F800000000804101C1064108413041C041018A2
:102F900000000000000000007FFE400240024002EE
:102FA0000000000030000C0003800060001C0003E3
:102FB000000000004002400240027FFE00000000CE
:102FC0000000000000002000400040004000200001
:102FD00000000001000100010001000100010001EA
:102FE0000001000040004000200000000000000040
:102FF000000000000098012401440144014400FC49
:10300000000410001FFC0088010401040088007007
:103010000000000000700088010401040104008821
:1030200000000000007000880104010411081FFC6A
:103030000004000000F8014401440144014400C8B8
:1030400000000000010401040FFC11041104110030
:103050001800000000D601290129012901C9010633
:10306000000010041FFC008401000100010400FCAA
:10307000000400000104190419FC0004000400000D
:1030800000000000000300010101190119FE000009
:10309000000010041FFC0024004001B4010C0104D6
:1030A00000000000100410041FFC000400040000D5
:1030B0000000010401FC0104010001FC0104010005
:1030C00000FC010401FC008401000100010400FC7B
:1030D0000004000000F8010401040104010400F8E8
:1030E0000000010101FF0085010401040088007057
:1030F000000000000070008801040104010501FFC8
:1031000000010104010401FC0084010401000180AC
:103110000000000000CC01240124012401240198B6
:10312000000000000100010007F801040104000094
:103130000000010001F8000400040004010801FC83
:103140000004010001800170000C0010016001808A
:10315000010001F0010C003001C00030010C01F051
:10316000010000000104018C00740170018C010455
:103170000000010101810171000E00180160018051
:10318000010000000184010C013401440184010CA0
:103190000000000000000000000001003EFC4002B2
:1031A00040020000000000000000FFFF00000000DF
:1031B00000000000400240023EFC01000000000050
:1031C00000000000600080008000400040002000FF
:1031D00020000000000000000000000000000000CF
:1031E00000000000000000000000000000000000DF
:1031F00000000000000000000000000000000000CF
:1032000000000000000F80380FFE380F80380000EB
:1032100000000000000000000000000000000000AE
:103220000100000600000C0000380000310000061C
:1032300000000C000038000030000000000000001A
:10324000000061800067F807F980006180006180FC
:103250000061800061800067F807F98000618000EC
:10326000000000000000000001C0E003E0F00630B4
:10327000080418081FFFFE040E080787F00381E00A
:1032800000000000000001F000060C000404080625
:103290000C7001F9C0000E00003BE000EC180708BC
:1032A00008040C180003E00000000001E00007F033
:1032B00003F818041C0804170807E1D003C0E00055
:1032C00023B0003C080020080000100000000000AF
:1032D000000100003100003200001C00000000006E
:1032E00000000000000000000000000000000000DE
:1032F00000000000000000000000000000000000CE
:1033000000007F0001FFC00780F00C0018100004CF
:103310002000020000000000002000021000040C49
:1033200000180780F001FFC0007F000000000000CF
:10333000000000000000000000000000000042004B
:10334000006600006600003C0000180003FFC0009B
:103350001800003C0000660000660000420000000B
:103360000000080000080000080000080000080035
:1033700001FFC0000800000800000800000800006D
:1033800008000000000000010000310000320000D1
:103390001C00000000000000000000000000000011
:1033A000000000000000000000000800000800000D
:1033B00008000008000008000008000008000008DD
:1033C00000000800000800000000000000000000ED
:1033D0000000380000380000380000000000000045
:1033E00000000000000000000000000000000000DD
:1033F0000000000600001C000070000180000E00AC
:1034000000380000C0000700001C00003000000071
:103410000000000000007F8001FFE00380700600D4
:103420001804000804000806001803807001FFE07B
:10343000007F800000000000000000000100080183
:10344000000801000803FFF807FFF800000800006B
:103450000800000800000000000000000001C03863
:1034600002C0580400980401180402180404180645
:103470001C1803F81801E0F800000000000000002C
:103480000001C0E003C0F0040008040808040808B4
:1034900006180803F41801E7F00001E0000000003E
:1034A0000000000000000300000D0000110000619A
:1034B0000000810803010807FFF80FFFF80001086A
:1034C0000001080000000000000000E007FCD0063A
:1034D0000808061008061008061008061838060F17
:1034E000F00607C0000000000000000000003F8060
:1034F00001FFE003843002081804100804100804D7
:103500001008071810030FF00007C00000000000AB
:103510000000000003C0000700000600000600F8DD
:103520000607F806180006E0000700000600000085
:10353000000000000001E1E003F7F0063410041879
:1035400008041808040C08040C0806161803F3F005
:1035500001C1E000000000000000F80003FC30039F
:1035600006380402080402080402080404100308D0
:10357000F001FFC0007F000000000000000000001C
:1035800000000000000000000000703800703800EB
:103590007038000000000000000000000000000083
:1035A0000000000000000000000000000000301AD1
:1035B00000301C00000000000000000000000000BF
:1035C00000000000000000000008000014000022BD
:1035D0000000410000808001004002002004001033
:1035E0000800080000000000000021000021000089
:1035F0002100002100002100002100002100002105
:103600000000210000210000000000000000000078
:103610000800080400100200200100400080800023
:10362000410000220000140000080000000000001B
:103630000003C00004C000040000080038080F3870
:103640000808380810000C300007E00003C0000034
:103650000000000000003F8000FFE0038070020FC8
:103660001006708804C088048308047F8802C09014
:1036700003012000FE400000080000180001F800CF
:103680003E0801C20007020007E20000FE00001F22
:10369000C80001F800003800000804000807FFF81F
:1036A00007FFF804080804080804080804080806C6
:1036B000180803F41801E7F00001E0000000000022
:1036C00000003F8001FFE003807002001804000842
:1036D0000400080400080400100600200780C00051
:1036E000000004000807FFF807FFF80400080400C2
:1036F0000804000804001802001003807001FFE0B5
:10370000007F8000000004000807FFF807FFF804AE
:103710000808040808040808040808043E0804000F
:103720000806001801006000000004000807FFF808
:1037300007FFF8040808040800040800040800044F
:103740003E000600000600000180000000000000AE
:1037500000003F8001FFE0038070060018040008AD
:103760000402080402080203F00783F000020000CC
:10377000020004000807FFF807FFF8040808000823
:103780000000080000080000080004080807FFF80F
:1037900007FFF8040008000000000000040008040F
:1037A000000804000807FFF807FFF80400080400F9
:1037B00008040008000000000000000000000006EF
:1037C00000000700000104000104000104000307D9
:1037D000FFFE07FFFC0400000400000400000400DA
:1037E0000807FFF807FFF8040C08001800003E0067
:1037F00004C7800503C80600F80400380400180058
:10380000000804000807FFF807FFF804000800009C
:103810000800000800000800000800000800001868
:1038200000006000000004000807FFF80780080798
:10383000FC00007FC00003F80007C000780007808C
:103840000807FFF807FFF804000804000807FFF85E
:1038500007000803C00000E000003800001E000060
:1038600007000001C00400F007FFF804000000009A
:1038700000007F8001FFE00380700600180400084C
:1038800004000806001803003001FFE0007F8000FC
:10389000000004000807FFF807FFF8040408040408
:1038A00000040400040400040400060C0003F800F3
:1038B00001F000000000000000007F8001FFE00335
:1038C00080700600880400880400C806003C0300DD
:1038D0003E01FFE6007F8400000004000807FFF8B7
:1038E00007FFF8040808040800040C00040F000493
:1038F0000BC00610F003F03801E0080000080000DB
:103900000001E0F803F0300630100418080418082D
:10391000040C08040C080206180207F00781E000F6
:103920000000018000060000040000040000040004
:103930000807FFF807FFF80400080400000400006F
:1039400006000001800004000007FFE007FFF0040C
:10395000001800000800000800000800000800002F
:103960000804001007FFE004000004000006000047
:1039700007E00007FE00041FE00001F80000380027
:1039800001E0043E0007C00006000004000004003F
:103990000007E00007FFC0041FF80007C007F80099
:1039A00007FF80043FF80007C004F8000700000488
:1039B000000000000004000806001807C07805F1A8
:1039C000C8003E00001F800463E80780F806001866
:1039D0000400080000000400000600000780000743
:1039E000E008047C08001FF80007F800180804E04D
:1039F00008070000060000040000000000010008A5
:103A00000600380400F80403E8040F08047C0805E5
:103A1000F00807C00807001804006000000000005C
:103A2000000000000000000000000000003FFFFE5A
:103A300020000220000220000220000220000200DC
:103A4000000000000000000008000007000000C0A7
:103A5000000038000006000001C000003000000E29
:103A60000000010000000000000000002000022013
:103A700000022000022000022000023FFFFE0000A2
:103A80000000000000000000000000000000000036
:103A9000000000080000100000300000200000308E
:103AA00000001000000800000000000000000000FE
:103AB0000100000100000100000100000100000100
:103AC00000000100000100000100000100000100F1
:103AD00000010000000000000000002000002000A5
:103AE00000100000100000000000000000000000B6
:103AF0000000000000000000000000F00019F800C5
:103B00001B18002208002608002408002410003F8B
:103B1000F8001FF800000800001800000004000072
:103B200007FFF80FFFF00018180010080020080029
:103B30002008003018001FF0000FC0000000000037
:103B4000000007C0001FF000183000200800200807
:103B5000002008003C08001C10000060000000006D
:103B600000000000000007C0001FF000381800200F
:103B70000800200800200804101007FFF80FFFF0CD
:103B80000000100000000000000000000007C0005E
:103B90001FF0001230002218002208002208003214
:103BA00008001E10000E2000000000000000200091
:103BB00000200800200801FFF803FFF80620080491
:103BC0002008042008072000030000000000000077
:103BD0000000000E000E6E001FF30031B10020B196
:103BE0000020B1003191001F13002E1E00200E0096
:103BF000300000000004000807FFF80FFFF8001075
:103C000008002000002000002008003FF8001FF8F6
:103C10000000080000000000000000000020080074
:103C20002008002008063FF8063FF80000080000C2
:103C30000800000800000000000000000000000074
:103C40000000030000030020010020010020030603
:103C50003FFE063FFC0000000000000000000000E6
:103C60000004000807FFF80FFFF8000188000300B8
:103C7000002FC00038F8002038002008000008009D
:103C80000000000000000000040008040008040018
:103C90000807FFF80FFFF800000800000800000800
:103CA000000000000000002008003FF8003FF8007E
:103CB0001008002000003FF8003FF8001008002026
:103CC00000003FF8003FF800000800000000200856
:103CD000003FF8003FF8001008001000002000002E
:103CE0002008003FF8001FF8000008000000000056
:103CF000000007C0000FF000183000300800200856
:103D0000002008003008001830000FF00007C00045
:103D10000000000000002001003FFF003FFF0010F6
:103D200011002009002008002008003038001FF092
:103D3000000FC00000000000000007C0001FF000DE
:103D40003818002008002008002009001011001F6A
:103D5000FF003FFF000001000000002008002008D5
:103D6000002008003FF8003FF80008080010080095
:103D7000200800200000300000300000000000009B
:103D800000000000000C78001E1800330800230813
:103D90000021080021880021980030F000386000E0
:103DA000000000000000200000200000200000FFB4
:103DB000F003FFF800200800200800200800003071
:103DC000000000000000000000002000003FF000A4
:103DD0007FF8000018000008000008002010003FD5
:103DE000F8007FF00000100000000000000020003C
:103DF000003000003C00003F800023F0000078000D
:103E00000070002380003C000030000020000020F3
:103E100000003C00003FE00023F80000E000270025
:103E2000003E00003FE00021F80001E0003E0000FD
:103E30002000000000002008002008003838003E64
:103E4000680027800003C8002CF8003838002018CC
:103E500000200800000000000000200000300300E7
:103E60003C01003F830023EC000070002380003CF5
:103E70000000200000200000000000000000000002
:103E80000038080020380020F80023E8002F8800C0
:103E90003E080038080020180000700000000000F4
:103EA000000000000000000000000000000008000A
:103EB0000014001FF7FC3000062000020000000084
:103EC00000000000000000000000000000000000F2
:103ED00000000000FFFFFF000000000000000000E5
:103EE0000000000000000000000000002000023080
:103EF00000061FF7FC00140000080000000000008E
:103F00000000000000000000000000000018000099
:103F10006000004000004000002000001000000889
:103F200000000400000400000C00001000004D63BD
:103F3000756465762053544D3332463420444D41E8
:103F400020B4AEBFDACAB5D1E90000006C3F00086A
:103F50000000002020000000C40100088C3F000881
:103F600020000020302B0000E001000800000000CD
:103F7000010000000000000000000000000001023D
:0C3F800003040102030406070809000006
:040000050800018965
:00000001FF
