:020000040800F2
:1000000038070020290200088D0400084704000872
:1000100089040008D9020008CB070008000000008E
:100020000000000000000000000000006105000862
:10003000DD020008000000001D0500087906000828
:10004000F9070008430200084302000843020008C1
:100050004302000843020008E102000843020008CE
:10006000430200082D030008610300084302000852
:10007000430200084302000843020008430200084C
:10008000430200084302000843020008430200083C
:10009000430200084302000843020008430200082C
:1000A000430200084302000843020008430200081C
:1000B000430200084302000843020008430200080C
:1000C00043020008430200084302000843020008FC
:1000D00043020008E5060008430200084302000846
:1000E00043020008430200084302000843020008DC
:1000F00043020008430200084302000843020008CC
:1001000043020008430200084302000843020008BB
:1001100043020008430200084302000843020008AB
:10012000430200084302000843020008430200089B
:10013000430200084302000843020008430200088B
:10014000430200084302000843020008430200087B
:10015000430200084302000843020008430200086B
:10016000430200084302000843020008430200085B
:10017000430200084302000843020008430200084B
:10018000430200084302000800F002F800F03CF8C7
:100190000AA090E8000C82448344AAF10107DA45E2
:1001A00001D100F031F8AFF2090EBAE80F0013F0F8
:1001B000010F18BFFB1A43F0010318471C08000089
:1001C0003C080000103A24BF78C878C1FAD852071A
:1001D00024BF30C830C144BF04680C6070470000C1
:1001E0000023002400250026103A28BF78C1FBD840
:1001F000520728BF30C148BF0B6070471FB500F0E1
:10020000E5FB1FBD10B510BD00F033F81146FFF738
:10021000F5FF00F0BDFB00F051F803B4FFF7F2FF6B
:1002200003BC00F053FB0000094880470948004721
:10023000FEE7FEE7FEE7FEE7FEE7FEE7FEE7FEE796
:10024000FEE7FEE704480549054A064B70470000F3
:100250007D060008890100083801002038070020C9
:1002600038030020380300207047704770477047FC
:100270007047754600F02CF8AE46050069465346B7
:1002800020F00700854618B020B5FFF7DBFFBDE87A
:1002900020404FF000064FF000074FF000084FF0ED
:1002A000000B21F00701AC46ACE8C009ACE8C0097E
:1002B000ACE8C009ACE8C0098D46704710B50446EB
:1002C000AFF300802046BDE81040FFF7A6BF000056
:1002D00000487047D800002000BFFEE770470000CC
:1002E00010B50A2000F012FB01210D4800F0A0F823
:1002F000012811D10B48006808B9012000E0002056
:10030000084908600848D0F89C0208B9012000E0BC
:1003100000200449091D0860012000F03BF810BDD1
:1003200000000240980240420000404210B50A20FE
:1003300000F0ECFA0821084800F07AF838B90748CC
:10034000006808B9012000E0002004490860082086
:1003500000F020F810BD0000001002409C02404256
:1003600010B50A2000F0D2FA1021084800F060F819
:1003700038B90748006808B9012000E000200449A6
:100380000860102000F006F810BD000000100240C8
:10039000980240420149086070470000143C014047
:1003A000F0B50A4600210023002400BF3DE00125EE
:1003B00005FA01F3156805EA03049C4234D1056887
:1003C0004F000326BE40B543056015794E00B54089
:1003D0000668354305601579012D02D01579022D87
:1003E00016D185684F000326BE40B5438560557918
:1003F0004E00B540866835438560456801268E40CD
:10040000B5434560456896798E40B6B23543456040
:10041000C5684F000326BE40B543C560D5794E0080
:10042000B540C6683543C560491C1029BFD3F0BD2F
:100430000246002013690B400BB1012000E00020B0
:1004400070470183704700BFFEE700001CB5012123
:10045000084600F065F8C020009001208DF80400E7
:1004600000208DF8060003208DF8050001208DF88E
:10047000070069460348FFF793FFC0210148FFF7D3
:10048000E0FF1CBD0000024000BFFEE77047000017
:1004900070B5002100230F22C4781CB3174C2468C8
:1004A00004F4E064C4F5E064C4F30721C1F104047A
:1004B000E3B20A4144789C40E1B28478144021437D
:1004C0000C07210E0E4C05786155047804F01F05C9
:1004D0000124AC4005786D11AD0005F1E025C5F8AB
:1004E000004109E0047804F01F050124AC40054DEB
:1004F0000678761145F8264070BD00000CED00E04E
:1005000000E400E080E100E002490143024A11609A
:10051000704700000000FA050CED00E07047000095
:1005200029B1064A12680243044B1A6004E0034AE8
:1005300012688243014B1A60704700003038024055
:1005400029B1064A12680243044B1A6004E0034AC8
:1005500012688243014B1A60704700004038024025
:10056000704700000CB500200190009034480068EE
:1005700040F480303249086000BF3148006800F420
:10058000003000900198401C0190009818B9019823
:10059000B0F5A04FF1D12A48006800F4003010B146
:1005A0000120009001E0002000900098012846D131
:1005B00023484030006840F08050214940310860B5
:1005C0002048006840F440401E4908601C4808303C
:1005D00000681B49083108600846006840F4004084
:1005E00008600846006840F4A05008601648091FDB
:1005F0000860081F006840F08070091F086000BF95
:100600000F48006800F000700028F9D040F2057033
:100610000E4908600A480830006820F003000849C5
:10062000083108600846006840F00200086000BF1A
:1006300003480830006800F00C000828F8D10CBD11
:10064000003802400070004008544007003C02405F
:10065000042808D14FF0E021096941F004014FF06E
:10066000E022116107E04FF0E021096921F0040167
:100670004FF0E022116170477047000010B5154837
:10068000006840F47000134908601348006840F0A7
:1006900001001149086000200F49083108600E4828
:1006A00000680E4908400C4908600D48091D0860A3
:1006B000081F006820F48020091F086000200649F8
:1006C0000C310860FFF74EFF4FF0006001498039A0
:1006D000086010BD88ED00E000380240FFFFF6FE24
:1006E0001030002410B540F225511D4800F03EF8AE
:1006F00010B31B4800F064F8C4B21A48008800F434
:100700000040C8B91748008800F4804060B10A2C46
:1007100003D000201349088020E01248008840F4EC
:1007200000401049088019E00D2C06D10D480088C2
:1007300040F480400B49088010E00A480088C0F36C
:100740000D0009490C5407480088401C05490880E1
:1007500008460088C72801DD0020088010BD000081
:10076000001001400C0000201000002070B502466F
:10077000002400230025002040F66A16B14200D173
:1007800000BFC1F3421501F01F03012606FA03F36F
:10079000012D02D19689334006E0022D02D1168A3E
:1007A000334001E0968A33400C12012606FA04F425
:1007B0001688344013B10CB1012000E0002070BD58
:1007C00001468888C0F30800704700BFFEE70000BC
:1007D0000020014908607047082C004040F080016B
:1007E000014A116070470000002C004001200149BF
:1007F00008607047A480054210B50748007800F0F3
:100800003DF8FFF7E5FF0548006808B9012000E062
:1008100000200249086010BD000000209C024042F8
:10082000F8B506460C4615460121C802FFF788FEBA
:1008300011480078304010490870284600F026F82A
:10084000204600F02FF80C480078FFF7C7FF002083
:100850008DF8000002208DF8010003208DF80200C1
:1008600001208DF803006846FFF712FEFFF7B0FF86
:10087000FFF7BCFFF8BD00000000002000F07F0182
:10088000014A116070470000002C00400021044A1A
:10089000126822F4C0710143014A116070470000E0
:1008A000042C004008B5002100910749096821F097
:1008B0007F01009100F07F01009A11430091024AEC
:1008C0000099116008BD0000042C004000BF704773
:1008D00010B504466FF00400FFF7BAFEE11704EB11
:1008E0005171C1F3C701074A11701046007800EB3F
:1008F0004001C1EBC0104FF6FF7101EAC000024990
:10090000088010BD020000200400002070B50446DD
:100910004FF4077094FBF0F0C6B24FF4077094FBED
:10092000F0F100FB114085B205E04FF4077000F0D4
:1009300009F8701EC6B2002EF7D115B1284600F096
:1009400001F870BD0146114A12884A434FF0E02376
:100950005A6100229A611A46126942F001021A6134
:1009600000BF4FF0E022106900F001021AB100F45C
:100970008032002AF5D04FF0E022126922F0010205
:100980004FF0E0231A6100229A61704704000020B2
:100990004FF4A060FFF7B8FDA820FFF799FFFFF71D
:1009A00055FD0020084908604FF47A70FFF7AEFF4C
:1009B0004FF4C0725F217F20FFF732FF02E0012079
:1009C00001490860FBE70000980240424FF0407088
:1009D000E1EE100A70470000F8090008000000204E
:1009E00010000000C4010008080A000810000020E0
:1009F00028070000E00100087F0000000000000060
:080A00000000000000000000EE
:040000050800018965
:00000001FF
