:020000040800F2
:10000000F0560020912600087D0200087F020008BB
:1000100083020008870200088B020008000000002D
:100020000000000000000000000000008F02000837
:1000300091020008000000009302000895020008E9
:10004000AB260008AB260008AB260008AB2600084C
:10005000AB260008AB260008AB260008AB2600083C
:10006000AB260008AB260008AB260008AB2600082C
:10007000AB260008AB260008AB260008AB2600081C
:10008000AB260008AB260008AB260008AB2600080C
:10009000AB260008AB260008AB260008AB260008FC
:1000A000AB260008AB260008AB260008AB260008EC
:1000B000AB260008AB260008AB260008AB260008DC
:1000C000AB260008AB260008AB260008AB260008CC
:1000D000AB26000857240008AB260008AB26000812
:1000E000AB260008AB260008AB260008AB260008AC
:1000F000AB260008AB260008AB260008AB2600089C
:10010000AB260008AB260008AB260008AB2600088B
:10011000AB260008AB260008AB260008AB2600087B
:10012000AB26000823260008AB260008AB260008F3
:10013000AB260008AB260008AB260008AB2600085B
:10014000AB260008AB260008AB260008AB2600084B
:10015000AB260008AB260008AB2600080D260008D9
:10016000AB260008AB260008AB260008AB2600082B
:10017000AB260008AB260008AB260008AB2600081B
:10018000AB260008AB26000800F002F800F067F884
:100190000AA090E8000C82448344AAF10107DA45E2
:1001A00001D100F05CF8AFF2090EBAE80F0013F0CD
:1001B000010F18BFFB1A43F0010318472C6600001B
:1001C0004C6600000A444FF0000C10F8013B13F09D
:1001D000070408BF10F8014B1D1108BF10F8015BA0
:1001E000641E05D010F8016B641E01F8016BF9D193
:1001F00013F0080F1EBF10F8014BAD1C0C1B09D1EA
:100200006D1E58BF01F801CBFAD505E014F8016B5B
:1002100001F8016B6D1EF9D59142D6D370470000ED
:100220000023002400250026103A28BF78C1FBD8FF
:10023000520728BF30C148BF0B607047642903F0E4
:10024000D985782903F01286732903F0AA86002045
:1002500070471FB503F00AFF1FBD10B510BD03F0B6
:10026000D3FE1146FFF7F5FF01F05AF903F0F1FE56
:1002700003B4FFF7F2FF03BC02F088F8704700BF39
:10028000FEE700BFFEE700BFFEE700BFFEE77047E6
:1002900070477047704700000CB500200190009037
:1002A0007648006840F480307449086000BF7348A5
:1002B000006800F4003000900198401C0190009804
:1002C00018B90198B0F5A04FF1D16C48006800F45E
:1002D000003010B10120009001E000200090009853
:1002E000012846D165484030006840F0805063499D
:1002F000403108606248006840F44040604908604E
:100300005E48083000685D490831086008460068AA
:1003100040F4004008600846006840F4A0500860BF
:100320005848091F0860081F006840F08070091FC6
:10033000086000BF5148006800F000700028F9D044
:1003400040F20570504908604C480830006820F0C1
:1003500003004A49083108600846006840F002007E
:10036000086000BF45480830006800F00C0008280D
:10037000F8D10CBD10B54548006840F47000434901
:1003800008603E48006840F001003C4908600020D9
:100390003A4908310860394800683D490840374902
:1003A00008603C48091D0860081F006820F4802090
:1003B000091F0860002031490C310860FFF76CFF0D
:1003C0004FF0006031498039086010BD70B50020E1
:1003D0000022022300240221284D08352D6805F053
:1003E0000C0020B1042806D0082834D107E02A4D9B
:1003F0002A4E356033E02A4D284E35602FE01F4DE0
:100400002D1D2D68C5F380541C4D2D1D2D6805F044
:100410003F0154B1224DB5FBF1F5184E361D36683B
:10042000C6F3881605FB06F209E01B4DB5FBF1F596
:10043000124E361D3668C6F3881605FB06F20F4DC0
:100440002D1D2D68C5F301456D1C6B00B2FBF3F546
:10045000124E356003E0104D104E356000BF00BFF6
:10046000064D08352D68C5F303150E4E705D0B4D16
:100470002D68C540094E356070BD0000003802404F
:100480000070004008544007003C024088ED00E046
:10049000FFFFF6FE103000240024F40000000020CE
:1004A00000127A000400002000B587B0012102206C
:1004B00002F0A2FC0121880302F0E7FC4FF4204087
:1004C000059002208DF8180000208DF81A000220F7
:1004D0008DF8190005A9F84802F0F0F94FF4204111
:1004E000F54802F067FA05220D21F34802F071FA8F
:1004F00005220F21F04802F06CFA0121880302F076
:1005000019FD00214FF4804002F014FD0020ADF8E9
:1005100000004FF48270ADF802000020ADF8040036
:100520000220ADF806000120ADF808004002ADF849
:100530000A003820ADF80C000020ADF80E000720AE
:10054000ADF810006946DD4802F0F6FD0121DB48F8
:1005500002F0ECFE07B000BD1CB50121022002F044
:100560004BFC4FF4E050009001208DF80400002077
:100570008DF8060002208DF805006946CE4802F08D
:100580009DF91CBD10B50446CC4800884FF6C771D4
:100590000840CA4908800846008820430880012195
:1005A000C64802F0C3FE10BD70B50546002405E044
:1005B000601CC4B2C82C01DD002070BD0221BF4800
:1005C00002F07EFF0028F3D02946BC4802F02FFF3E
:1005D000002405E0601CC4B2C82C01DD0020ECE75B
:1005E0000121B64802F06CFF0028F3D0B34802F0B6
:1005F0001BFFC0B2E1E710B504462046FFF7D4FF69
:1006000010BD70B504460D464FF48051AA4802F063
:10061000D3F92CB14FF48061A74802F0CBF904E084
:100620004FF48061A44802F0C7F92946A34802F0BC
:10063000FEFE00BF0221A14802F042FF0028F9D0CF
:100640004FF480619C4802F0B7F970BD70B5044664
:100650000D4605F00F00B030C1B20020FFF7D1FF0A
:10066000102040EA14110020FFF7CBFF04F00F0127
:100670000020FFF7C6FF70BD70B50024002500BF45
:1006800019E004F1B000C1B20020FFF7BAFF002169
:100690000846FFF7B6FF10210020FFF7B2FF002544
:1006A00005E000210120FFF7ACFF681CC5B2802DDA
:1006B000F7DB601CC4B2082CE3DB70BD70B500240E
:1006C000002500BF19E004F1B000C1B20020FFF71F
:1006D00098FF00210846FFF794FF10210020FFF744
:1006E00090FF002505E0FF210120FFF78AFF681C2D
:1006F000C5B2802DF7DB601CC4B2082CE3DB70BDF3
:1007000010B58D210020FFF77CFF14210020FFF79A
:1007100078FFAF210020FFF774FF10BD10B58D21C9
:100720000020FFF76EFF10210020FFF76AFFAE21C7
:100730000020FFF766FF10BD2DE9F04107460E4689
:10074000904600240025A8F12000C5B27F2F02DDCD
:100750000027B01CC6B231463846FFF777FF0024A9
:1007600008E004EB0510564A115C0120FFF749FF31
:10077000601CC4B2082CF4DB701CC1B23846FFF711
:1007800065FF002409E004EB051008304C4A115CB9
:100790000120FFF736FF601CC4B2082CF3DBBDE874
:1007A000F0812DE9F04104460F46154600260EE083
:1007B000AA5D39462046FFF7BFFF04F10800C4B226
:1007C000782C02DD0024B81CC7B2701CC6B2A85D2C
:1007D0000028EDD1BDE8F0812DE9F04107460E4635
:1007E0001546002431463846FFF730FF00BF08E0C9
:1007F000344A02EB8510015D0120FFF702FF601C07
:10080000C4B2102CF4DB701CC1B23846FFF71EFFD7
:1008100000240AE06800401C2A4A02EB4010015DF7
:100820000120FFF7EEFE601CC4B2102CF2DBBDE825
:10083000F0812DE9F05F06460F4690461C46DDF834
:1008400028A04FF000090025AB46E11704EB5171D9
:10085000C910A4EBC10131B92046E11704EB517175
:10086000C1F3C70506E02046E11704EB5171C9103A
:10087000491CCDB23D4615E029463046FFF7E6FE5D
:10088000B1460BE058460BF1010B1AF8001001209D
:10089000FFF7B7FE09F1010000F0FF09C145F1DBE8
:1008A000681CC5B2A542E7DBBDE8F09F70B5064DF8
:1008B00000240026B02422E000040240003800405A
:1008C0009E420008140000200C1700202146002042
:1008D000FFF797FE10210020FFF793FE0021084646
:1008E000FFF78FFE002606E015F8011B0120FFF739
:1008F00088FE701CC6B2802EF6DB601CC4B2B82C19
:10090000E4DB70BD10B50246012000E050430B1E31
:10091000A1F10104E1B2F9D110BD2DE9FF5F074655
:1009200090461D460E9E0024A146A24600BF33E01D
:10093000281B401EC1B20A20FFF7E4FFB8FBF0F00D
:100940000A21B0FBF1F201FB1209BAF1000F13D139
:10095000681EA04210DDB9F1000F0BD1B34606EBC3
:10096000DB71491001FB0471C8B220220199FFF725
:10097000E3FE0FE04FF0010AB34606EBDB714910CE
:1009800001FB0471C8B209F13001CAB20199FFF745
:10099000D3FE00BF601CC4B2AC42C9DBBDE8FF9F00
:1009A00070B500241CE004F1B000C1B20020FFF7D4
:1009B00028FE00210846FFF724FE10210020FFF743
:1009C00020FE002508E0FB4800EBC500015D01208A
:1009D000FFF717FE681CC5B2802DF4DB601CC4B2A3
:1009E000082CE0DB70BD70B500240CE0002506E0AB
:1009F0000020F04901EBC5010855681CC5B2802DE7
:100A0000F6DB601CC4B2082CF0DBFFF7C9FF70BD39
:100A100010B5FFF7A1FDC82001F098FC4FF400616C
:100A2000E54801F0C9FFC82001F090FC4FF40061D7
:100A3000E14801F0BFFFAE210020FFF7E2FD0021F9
:100A40000846FFF7DEFD10210020FFF7DAFD402108
:100A50000020FFF7D6FD81210020FFF7D2FDCF2136
:100A60000020FFF7CEFDA1210020FFF7CAFDC8211D
:100A70000020FFF7C6FDA6210020FFF7C2FDA82138
:100A80000020FFF7BEFD3F210020FFF7BAFDD32174
:100A90000020FFF7B6FD00210846FFF7B2FDD52183
:100AA0000020FFF7AEFD80210020FFF7AAFDD9212D
:100AB0000020FFF7A6FDF1210020FFF7A2FDDA21BB
:100AC0000020FFF79EFD12210020FFF79AFDDB2199
:100AD0000020FFF796FD40210020FFF792FD202126
:100AE0000020FFF78EFD02210020FFF78AFD8D21F7
:100AF0000020FFF786FD14210020FFF782FDA421CE
:100B00000020FFF77EFDA6210020FFF77AFDAF2130
:100B10000020FFF776FDFFF766FF10BDF0B5144625
:100B200000267F2801DC3F2900DDF0BD0B46CF17F2
:100B300001EB5777FF10C7F10707FAB2CF1701EBA8
:100B40005777FF10A1EBC707FDB2C5F107070123D7
:100B5000BB40DEB24CB1974B03EBC0039B5C33430D
:100B6000944F07EBC007BB5408E0924B03EBC00364
:100B70009B5CB3438F4F07EBC007BB5400BFD4E768
:100B80002DE9F84F80460F4616461C46BA462046C9
:100B9000E31704EB5373DB1021464FEAE47C04EBCC
:100BA0005C7C4FEAEC0CA4EBCC0CBCF1000F02D047
:100BB0004FF0010C01E04FF0000C6344224604EBBF
:100BC000D27C4FEA6C0C03FB0CF303F0FF0BA6F195
:100BD0002000C6B200254EE00C2C07D106EB4600E3
:100BE000764901EB8000405D009013E0102C05D1A8
:100BF000734800EB0610405D00900BE0182C07D105
:100C000006EBC6006F4901EB8000405D009001E0FB
:100C1000BDE8F88F4FF0000927E0009800F0800051
:100C200028B1394640460A9AFFF778FF09E00A984A
:100C300008B9012000E00020024639464046FFF78F
:100C40006DFF00984006000E0090781CC7B2A7EB1D
:100C50000A00A04205D1574608F1010000F0FF0844
:100C600006E009F1010000F0FF09B9F1080FD4DB3B
:100C700000BF681CC5B25D45AEDB00BFC8E710B55C
:100C80000246012000E050430B1EA1F10104E1B235
:100C9000F9D110BDF8B506460F4615461C4621E0B1
:100CA00004EBD4714910C1F18001B14202DA00268F
:100CB0003819C7B2C4F14000B84204DA0020064631
:100CC0000746FFF790FE012000902A782346394618
:100CD0003046FFF755FF204604EBD07106EB61016B
:100CE000CEB26D1C28787E2802DC28782028D7DA3E
:100CF000F8BD10B5044600BF0221334802F0E0FB06
:100D00000028F9D02146304802F091FB10BD70B5A3
:100D100005460C462CB14FF48061274801F04AFE8D
:100D200004E04FF48061244801F046FE2846FFF7B6
:100D3000E0FF70BD10B504461CB90021A620FFF7E6
:100D4000E6FF012C03D10021A720FFF7E0FF10BD33
:100D500010B504463CB90021C820FFF7D8FF002198
:100D6000A120FFF7D4FF012C07D10021C020FFF7FD
:100D7000CEFF0021A020FFF7CAFF10BD70B50A46C4
:100D8000CE1701EB5676C6F3C703CE1701EB5676A6
:100D9000F610A1EBC606F4B20122A240D5B2054A74
:100DA00002EBC002D25C2A43024E06EBC006F254AC
:100DB00070BD00003C1B002000040240FE4F0008F4
:100DC00072540008625A00080038004070B50B46A3
:100DD000CE1701EB5676C6F3C702CE1701EB567657
:100DE000F610A1EBC606F4B20123A340DDB2FB4B23
:100DF00003EBC0039B5CDB43F84E06EBC006B35429
:100E0000F64B03EBC0039B5C2B43F44E06EBC00692
:100E1000B354F24B03EBC0039B5CDB43EF4E06EB9A
:100E2000C006B35470BD2DE9F84F05460E4617466F
:100E30009846002D0ADB802F08DC002E06DBB8F177
:100E4000400F03DCBD4201DC464501DDBDE8F88F03
:100E5000BD420DD1002406E03019C1B22846FFF78B
:100E60008DFF601CC4B2A8EB0600A042F4DC30E0A9
:100E700046450CD1002406E02919C8B23146FFF7D7
:100E80007DFF601CC4B2781BA042F5DC21E0A8EB1A
:100E9000060000F0FF0A781B00F0FF0B0AEB8A0047
:100EA000400090FBFBF000F0FF0900240EE004FB83
:100EB00009F00A2190FBF1F03044C0B229190090EA
:100EC000C8B20099FFF75AFF601CC4B2781BA04259
:100ED000EDDC00BFBAE72DE9F04306460F46904629
:100EE000002544463BE03A1BD1B27219D0B2FFF75D
:100EF00045FF3A1BD1B2721BD0B2FFF73FFF3A1940
:100F0000D1B2721BD0B2FFF739FF3A19D1B27219C0
:100F1000D0B2FFF733FF7A19D1B23219D0B2FFF74E
:100F20002DFF7A1BD1B23219D0B2FFF727FF7A1BFF
:100F3000D1B2321BD0B2FFF721FF7A19D1B2321BE6
:100F4000D0B2FFF71BFF6D1C05FB05F004FB04008E
:100F500008FB1809B9F1000F01DD641E6D1E600069
:100F6000604308FB08F18842BDDABDE8F0832DE953
:100F7000FF4F81B080460E461C4600962046E31780
:100F800004EB5373DB1021464FEAE47C04EB5C7CFA
:100F90004FEAEC0CA4EBCC0CBCF1000F02D04FF0EC
:100FA000010C01E04FF0000C6344224604EBD27CBC
:100FB0004FEA6C0C03FB0CF303F0FF0B0398203893
:100FC000C7B2002547E00C2C07D107EB4700844946
:100FD00001EB800010F805A014E0102C05D1814829
:100FE00000EB071010F805A00CE0182C07D107EB58
:100FF000C7007D4901EB800010F805A002E005B0B4
:10100000BDE8F08F4FF000091FE00AF0800020B12A
:1010100031464046FFF7B2FE03E031464046FFF757
:10102000D5FE4FEA4A604FEA106A701CC6B20098BB
:10103000301AA04205D1009E08F1010000F0FF081F
:1010400006E009F1010000F0FF09B9F1080FDCDB4F
:1010500000BF681CC5B25D45B5DB00BFCFE72DE919
:10106000F04106460F4614461D4614E022782B46F2
:1010700039463046FFF77BFF284605EBD07106EB7B
:101080006101CEB2C5F18000B04203DA002607F15B
:101090000C00C7B2641C2078202802DB20787E2850
:1010A000E4DDFFF77DFCBDE8F08110B502460120CC
:1010B00000E050430B1EA1F10104E1B2F9D110BDD3
:1010C0002DE9F05F06468A4691461F460A9C002598
:1010D0002CE0781B401EC1B20A20FFF7E6FFB9FBE7
:1010E000F0F00A21B0FBF1F201FB1208B8F1000F99
:1010F0000CD1A34604EBDB71491001FB0561C8B2BA
:10110000234630225146FFF732FF0DE0A34604EBA1
:10111000DB71491001FB0561C8B208F13001CAB2A8
:1011200023465146FFF723FF681CC5B2BD42D0DB02
:10113000FFF736FCBDE8F09F2DE9FF4F07468846D4
:1011400091461C464FF0000B0297CDF804802046D4
:10115000E11704EB5171C1F3C701009171E009FB84
:1011600004F0C11700EB51710BEBE101CEB20BF1B2
:10117000010000F0FF0B002561E0102C05D11B4899
:1011800000EB0610405D03901BE0182C07D106EB26
:10119000C600174901EBC000405D039011E0202C10
:1011A00005D1144800EBC610405D039009E0402CC7
:1011B00005D1114800EB4620405D039001E0BDE8F9
:1011C000FF8F4FF0000A28E0039800F00100A8B15B
:1011D00041463846FFF7D2FD14E000003C1B0020DA
:1011E000FE4F000872540008625A0008D402002022
:1011F000340400200C0500200C070020414638462E
:10120000FFF7E4FD03984010039008F1010000F09F
:10121000FF080AF1010000F0FF0ABAF1080FD3DB62
:10122000781CC7B20298381AA04204D1029F0198D4
:101230000830C0B20190DDF80480681CC5B2A54238
:101240009BDB0098411EC9B20091002887D100BFE6
:10125000B5E72DE9F04107460C4625786678A5F1FB
:10126000B000C0EB001202EB401006EB4000A138CA
:1012700081014022384600F0D2FEA5F1B000C0EB5B
:10128000001101EB401006EB4000A138830132460B
:10129000294693A002F044FD394695A002F040FD96
:1012A0009DA002F03DFDBDE8F0812DE9F04F93B027
:1012B00005460E469046994600201290824600242C
:1012C000019005F0FF0BF0B20090414602A8FFF735
:1012D000C0FF00BF10E002A8005D402805DA02A8A8
:1012E000005D303802A9085504E002A8005D5738B7
:1012F00002A90855601CC4B2402CECDB00242FE08E
:1013000002A911F814000007070E6000401C085CD9
:1013100007434FF0000A12E007F0010020B1F1B2DC
:10132000E8B2FFF72BFD03E0F1B2E8B2FFF74EFDA4
:101330007F10701C86B20AF1010000F0FF0ABAF1BA
:10134000080FE9DB681C85B2A5EB0B00484504D10A
:101350005D4600980830C0B20090009E601CC4B288
:10136000202CCDDB13B0BDE8F08F2DE9F041054610
:101370000E4614461F4600BF2246641C1023314609
:101380002846FFF792FF641C702D03DA05F1100068
:1013900085B208E0302E04DA06F1100086B200258E
:1013A00001E00025002620780028E5D1FFF7F8FAB3
:1013B000BDE8F081804689460026002749E03FB914
:1013C0001023324618217020FFF7B6FE701CC6B2FB
:1013D000464522D14FF0000A1AE0012410E0002512
:1013E0000AE04E4800EBC400415D601E4B4A02EB30
:1013F000C0004155681CC5B2082DF2DB601CC4B2A8
:10140000802CECDBFFF7CCFA0AF1010000F0FF0AB8
:101410004FEA09105045E0DC0026781CC7B2102FB7
:1014200000D10027012410E000250AE03B4800EB32
:10143000C400415D601E394A02EBC0004155681C82
:10144000C5B2082DF2DB601CC4B2802CECDBFFF7C8
:10145000A7FAB4E770B504460D4605F1B001C8B26D
:101460000021FFF754FC102141EA14100021FFF77E
:101470004EFC04F00F000021FFF749FC70BD2DE980
:10148000F05F05460E4617469846DDF828B04FF047
:101490000009CA460024E11704EB5171C910A4EBFE
:1014A000C10101B901E0601CC4B2344614E0214618
:1014B0002846FFF7CFFFAA460AE01BF809000121E2
:1014C000FFF725FC09F101090AF1010000F0FF0A0C
:1014D000BA45F2DB601CC4B24445E8DBBDE8F09FCE
:1014E0000D0A202578200920257820092025640070
:1014F0000D0A20B4D3573235783136205350492065
:10150000464C415348B6C1B3F6B5C4CAFDBEDDCAA8
:10151000C73A2025730000000D0A00003C1B002084
:1015200000254FF4A06001F0D3F8A82000F0ACFE35
:101530004FF4FA3000F0A8FF00F0DAFB00F0F6FB01
:1015400000F010FDFEF7B0FFFFF762FA0C2323A2B4
:1015500000210846FFF783FD3FE0002000F004FC77
:101560000446022C07D10C221146002000F0A9F9F4
:101570001EA002F0D5FB012C1FD1FFF734FA0C237B
:1015800016A200210846FFF76AFD0C231DA219468A
:10159000002000F062FB0C231EA21821002000F0A6
:1015A0005CFB0C231FA22421002000F056FB0C231F
:1015B00020A23021002000F050FB681C85B20A20D8
:1015C00000F0C4FE142D08D11E48006808B901209F
:1015D00000E000201B4908600025BEE7313A557045
:1015E000646174652C303A53686F7700466F6E748F
:1015F00020697320726561646C79202E2E2E0D0A8D
:101600000000000053544D333246343037B5A5C680
:10161000ACBBFA0032303230C4EA38D4C231C8D55B
:1016200000000000BDF1CCECCAC7BDA8BEFCBDDA0D
:1016300000000000D7A3D7E6B9FAB7B1C8D9B2FD08
:10164000CAA200009802404210B5002400F08AFCB3
:101650000EE0601CC4B221220021D24800F0DFFC61
:10166000D0480078AA2800D104E0142000F06EFED3
:101670000A2CEEDB00BFCB480078AA2801D001205D
:1016800010BD0020FCE72DE9F0412DED028B82B06A
:1016900006460F4690461D46DDED0A8AFF24F8EE09
:1016A000680A00EE105AB8EE400A80EE801AB0EEDA
:1016B000418A9FEDBD0A28EE000AB0EE408A00EE96
:1016C000104AB8EE400AB4EE480AF1EE10FA13D010
:1016D000BCEEC80A10EE100AC4B2642C04DD642407
:1016E0002146B2A002F01CFB0C20F9B20090F0B22F
:1016F00003232246FFF7E4FC002002B0BDEC028B7E
:10170000BDE8F0812DE9FC5F81460E4692461F46FA
:1017100000250024A04637B1012F14D0022F27D076
:10172000032F4FD139E021209E49C1F801004FF429
:101730002B30C1F8050080460846D0F801509DA026
:1017400002F0EEFA3EE09748D0F801009549D1F852
:10175000051008449349C1F809009D48C1F80D00DF
:1017600080460846D0F809509AA002F0D9FA29E03C
:101770008C48D0F809008B49D1F80D1008448949EC
:10178000C1F811009948C1F8150080460846D0F804
:10179000115097A002F0C4FA14E08248D0F811006A
:1017A0008049D1F8151008447E49C1F819009648BF
:1017B000C1F81D0080460846D0F8195093A002F0E9
:1017C000AFFA00BF00BFF1B20C2396A27220FFF760
:1017D00046FC43465246314648460094FFF753FFC5
:1017E00037E09148006820B18F480068401C8E495E
:1017F00008608E480078022821D001208A490860BC
:101800008A48007830B961194FF48052884800F056
:10181000A2FC08E085480078012804D16119020380
:10182000844800F098FC04F5805402207F49087039
:1018300043465246314648460094FFF724FF642051
:1018400000F03CFD7848006840F6E441884200D949
:1018500000E0C6E700BF784802F0ABF901280CD1E0
:10186000754802F086F9C0F580501FFA80FB6119B7
:101870005A46704800F06FFC0BE06F4802F079F9AF
:10188000C0F580501FFA80FB61195A46684800F085
:1018900062FC4346524631464846CDF80080FFF789
:1018A000F2FE66A002F03CFA4FF4FA3000F0ECFDD4
:1018B00000205D49086002205C4908700198BDE87D
:1018C000FC9F2DE9F84306460D469046E9B2F0B27A
:1018D0000C2363A2FFF7C3FB0C2352A2194672200C
:1018E000FFF7BDFB002421E0B923424629466020D2
:1018F0000094FFF7C8FE21034FF480524D4800F0DA
:101900008EFB002706E04B48C05DFF2800D004E0B6
:10191000781C87B2B7F5805FF5DB00BFB7F5805F55
:1019200002D0204600F0F4FB601C84B2B92CDBDB53
:10193000B92003464246294600906020FFF7A3FEE7
:10194000642000F003FD05F10C02D1B2F0B20C23CB
:1019500048A2FFF784FB05F10C0081B20023424648
:101960006020FFF7CFFE05F11802D1B2F0B20C23D0
:1019700045A2FFF774FB05F1180081B2012342462E
:101980006020FFF7BFFEAA2006490870212200212F
:10199000044800F0E0FB41A002F0C2F90020BDE8DD
:1019A000F88300003C1F00200000C84225640D0A97
:1019B00000000000506C656173652073656E6420E3
:1019C000554E4947424B2E62696E0D0A00000000D9
:1019D00000C80800506C656173652073656E6420F3
:1019E00047424B31322E464F4E0D0A0000B40B00D9
:1019F000506C656173652073656E642047424B319E
:101A0000362E464F4E0D0A0000501A00506C65618C
:101A100073652073656E642047424B32342E464F07
:101A20004E0D0A00250000001C1B0020201B00207A
:101A3000893000208A40002028640240546869737D
:101A400020466F6E742075706461746564207375D0
:101A5000636365737366756C6C210D0A000000008A
:101A600045726173696E6720736563746F7273206A
:101A7000000000005570646174696E6720554E491E
:101A800047424B20000000005570646174696E6726
:101A90002047424B3132202000000000416C6C2076
:101AA000466F6E742066696C65207570646174653C
:101AB00064207375636365737366756C6C21212193
:101AC0000D0A00002DE9F05F82460F4614462046BD
:101AD000E21704EB5272D2102146E31704EB537362
:101AE000DB10A4EBC3030BB1012300E000231A4475
:101AF000624302F0FF099AF800600AF10100824691
:101B00000578812E05DB402D03DBFF2D01D0FF2E54
:101B10000DD14FF0000B06E0002007F8010B0BF190
:101B2000010000F0FF0BCB45F6DBBDE8F09F7F2DF9
:101B300003DAA5F14000C5B202E0A5F14100C5B24B
:101B4000A6F18100C6B2BE2010FB065000FB09F8CA
:101B50000C2C04D0102C0AD0182C1CD111E04A46B1
:101B600008F52B312131384600F059FA13E05F486F
:101B7000D0F8110000EB08014A46384600F04FFA51
:101B800009E05A48D0F8190000EB08014A463846E7
:101B900000F045FA00BF00BF00BFC6E72DE9F04FD7
:101BA00093B006460D4690461C46AA462046E217CC
:101BB00004EB5272D2102146E31704EB5373DB108F
:101BC000A4EBC3030BB1012300E000231A446243DA
:101BD00002F0FF0B0C2C06D0102C04D0182C02D0D5
:101BE00013B0BDE8F08F224669464046FFF76AFF12
:101BF00000272CE01DF8070012904FF0000920E0AC
:101C0000129800F0800020B1E9B2F0B2FFF7B6F808
:101C100005E01C9818B9E9B2F0B2FFF7D7F81298AE
:101C20004006000E1290681C85B2A5EB0A00A04287
:101C300003D15546701C86B206E009F1010000F0A0
:101C4000FF09B9F1080FDBDB00BF781CC7B25F45A5
:101C5000D0DBFEF7A5FE00BFC2E72DE9F84305463D
:101C60000F4616461C464FF0000839E0B8F1000F49
:101C70001BD13078802802DD4FF0010830E0327847
:101C8000234639462846FFF772F9204604EBD07107
:101C900005EB6101CDB2C4F18000A84203DA002552
:101CA00007F10C00C7B2761C1AE04FF000080120C3
:101CB0000C233246394600902846FFF76FFF204636
:101CC00004EBD07105EB6101CDB2C4F18000A842F4
:101CD00003DA002507F10C00C7B2B61CA81DC5B277
:101CE00030780028C2D1BDE8F88300003C1F0020F6
:101CF0001CB50121084601F07FF8C02000900120AA
:101D00008DF8040000208DF8060003208DF80500F2
:101D100001208DF807006946034800F0CFFDC0217F
:101D2000014800F047FE1CBD000002401CB5012127
:101D3000112001F061F81820009000208DF80400B7
:101D400003208DF8050001208DF8070069462C4816
:101D500000F0B4FD0120009002208DF807006946D4
:101D6000284800F0ABFD1CBD10B5044614B101209D
:101D7000254908702448007858B31021204800F005
:101D8000FFFD50B108211E4800F0FAFD28B10121E5
:101D90001C4800F0F5FD01281BD10A2000F0D6FAFE
:101DA0000020194908701021154800F0E9FD08B914
:101DB000012010BD0821124800F0E2FD08B9022000
:101DC000F7E701210F4800F0DBFD012815D10420C1
:101DD000EFE710210A4800F0D3FD01280DD10821BA
:101DE000074800F0CDFD012807D10121054800F08A
:101DF000C7FD10B90120044908700020D9E7000090
:101E000000100240000002400C1B002010B50446E8
:101E100000BF0221414801F053FB0028F9D02146C0
:101E20003E4801F004FB00BF01213C4801F048FBA3
:101E30000028F9D0394801F0F7FAC0B210BD00B55A
:101E400087B00121084600F0D7FF0121080301F007
:101E50002DF83820059002208DF8180000208DF80C
:101E60001A0003208DF8190001208DF81B0005A928
:101E70002B4800F023FD05220321294800F0A9FD8D
:101E800005220421264800F0A4FD0522114624481D
:101E900000F09FFD0121080301F05DF800214FF4DF
:101EA000805001F058F80020ADF800004FF4827027
:101EB000ADF802000020ADF804000220ADF80600E5
:101EC0000120ADF808004002ADF80A003820ADF856
:101ED0000C000020ADF80E000720ADF81000694698
:101EE0000E4801F029F901210C4801F01FFAFF20EA
:101EF000FFF78CFF07B000BD10B504460748008807
:101F00004FF6C771084005490880084600882043FD
:101F100008800121014801F009FA10BD003001409C
:101F20000004024010B500240020D0490860902031
:101F3000FFF76CFF0020FFF769FF0020FFF766FF47
:101F40000020FFF763FFFF20FFF760FF44EA002453
:101F5000FF20FFF75BFF04430120C549C1F8800261
:101F6000204610BD1CB50121022000F045FF0120D4
:101F700000908DF8040000208DF8060003208DF8F5
:101F8000050001208DF807006946BA4800F096FC6C
:101F90000120B6490860FFF752FF0020FFF7ACFFB1
:101FA000FFF7C0FFB44908801CBD10B50024002015
:101FB000AE4908600520FFF729FFFF20FFF726FF45
:101FC00004460120AA49C1F88002204610BD10B580
:101FD00004460020A54908600120FFF717FF2046AE
:101FE000FFF714FF0120A249C1F8800210BD10B50F
:101FF00000209E4908600620FFF708FF01209C4949
:10200000C1F8800210BD10B5002098490860042076
:10201000FFF7FCFE01209649C1F8800210BD2DE9B2
:10202000F04106460C461746002090490860032000
:10203000FFF7ECFEC4F30740FFF7E8FEC4F3072008
:10204000FFF7E4FEE0B2FFF7E1FE002505E0FF2028
:10205000FFF7DCFE7055681C85B2BD42F7DB01203E
:1020600082490860BDE8F08110B500BFFFF79DFF11
:1020700000F001000028F9D110BD2DE9F04106461D
:102080000C461746FFF7B3FF00207849086002208E
:10209000FFF7BCFEC4F30740FFF7B8FEC4F3072008
:1020A000FFF7B4FEE0B2FFF7B1FE002504E0705D7B
:1020B000FFF7ACFE681C85B2BD42F8DB01206B491E
:1020C0000860FFF7D1FFBDE8F0812DE9F041074638
:1020D0000E461446F0B2C0F58075AC4200DC2546D1
:1020E00012E02A4631463846FFF7C7FFAC4200D11E
:1020F0000BE02F442E44601B84B2B4F5807F02DDD8
:102100004FF4807500E02546EBE700BFBDE8F081A5
:1021100010B50446214659A001F002FE2403FFF742
:1021200066FFFFF7A1FF0020504908602020FFF75D
:102130006DFEC4F30740FFF769FEC4F30720FFF705
:1021400065FEE0B2FFF762FE01204949C1F8800256
:10215000FFF78AFF10BD2DE9F05F81460F46164656
:10216000DFF820B14FEA1738C7F30B0ACAF58054DD
:10217000A64200DC344644E04FEA08314FF4805276
:102180005846FFF74CFF002508E00AEB05001BF856
:102190000000FF2800D003E0681C85B2A542F4DBF4
:1021A00000BFA54216DA4046FFF7B2FF002507E060
:1021B00019F8050005EB0A010BF80100681C85B24F
:1021C000A542F5DB4FEA08314FF480525846FFF73D
:1021D0007CFF04E0224639464846FFF776FFA642D8
:1021E00000D10FE008F101084FF0000AA144274494
:1021F000301B86B2B6F5805F02DD4FF4805400E0FC
:102200003446B9E700BFBDE8F09F10B5FFF7EFFE19
:10221000FFF72AFF002015490860C720FFF7F6FDE9
:1022200001201349C1F88002FFF71EFF10BD10B551
:1022300000200E490860B920FFF7E8FD01200C4995
:10224000C1F88002032000F039F810BD10B500205D
:1022500006490860AB20FFF7D9FD01200449C1F809
:102260008002032000F02AF810BD00008082404266
:1022700000804042000402400E1B002066653A25A3
:10228000780D0A005D1F002010B504466FF00400B1
:1022900000F070FAE11704EB5171C1F3C701394A3C
:1022A00011701046007800EB4001C1EBC0104FF6F2
:1022B000FF7101EAC0003449088010BD0146314A6F
:1022C00012784A434FF0E0235A6100229A611A467D
:1022D000126942F001021A6100BF4FF0E02210695A
:1022E00000F001021AB100F48032002AF5D04FF05C
:1022F000E022126922F001024FF0E0231A6100226D
:102300009A6170470146204A12884A434FF0E02301
:102310005A6100229A611A46126942F001021A615A
:1023200000BF4FF0E022106900F001021AB100F482
:102330008032002AF5D04FF0E022126922F001022B
:102340004FF0E0231A6100229A61704770B504468D
:102350004FF4077094FBF0F0C6B24FF4077094FB93
:10236000F0F100FB114085B205E04FF40770FFF774
:10237000C9FF701EC6B2002EF7D115B12846FFF76F
:10238000C1FF70BD101B0020121B0020014600BFC2
:10239000704700BFB44A128802F04002002AF9D008
:1023A000C2B2B14B1B1D1A80704710B588B00446ED
:1023B0000121084600F020FD0121102000F076FDEB
:1023C00007220921A94800F004FB07220A21A74897
:1023D00000F0FFFA4FF4C060069002208DF81C0058
:1023E0008DF81D0000208DF81E0001208DF81F00C3
:1023F00006A99E4800F062FA02940020ADF80C0095
:10240000ADF80E00ADF81000ADF814000C20ADF8DA
:10241000120002A9964801F0EAF80121944801F05F
:102420006EF94021924801F052FA012240F2255102
:102430008F4801F01AFA25208DF8040003208DF84A
:1024400005008DF8060001208DF8070001A800F0B6
:1024500044F908B010BD08B50020009040F22551A5
:10246000834801F03DFA70B1814801F077F9C0B2BC
:102470000090804801680068401C7E4B0122186073
:102480006846FFF722FE08BD10B596B0044601214C
:10249000042000F0B1FC0121202000F007FD0822FB
:1024A0000621754800F095FA08220721724800F0CD
:1024B00090FAC020149002208DF854008DF8550039
:1024C00000208DF8560001208DF8570014A96A48A5
:1024D00000F0F4F910940020ADF84400ADF8460087
:1024E000ADF84800ADF84C000C20ADF84A0010A93A
:1024F0005D4801F07CF801215B4801F000F94021C2
:10250000594801F0E4F9012240F22551564801F002
:10251000ACF901224021544801F09EF947208DF882
:102520003C0003208DF83D008DF83E0001208DF821
:102530003F000FA800F0D1F80121880500F05CFCF5
:102540004E4801F017FA00BF4C4801F03CFB002850
:10255000FAD14FF0206000904348001D0190484898
:102560000290002003904FF48050049000200590CA
:102570004FF4806006900020079008904FF4807020
:10258000099000020A9000200B9003200C9000207C
:102590000D900E9000223B49384801F0EEFA0121DF
:1025A000364801F0F6FA6946344801F085FA01210F
:1025B000324801F0BBFA01221021304801F043FB00
:1025C00039208DF83C0002208DF83D008DF83E004A
:1025D00001208DF83F000FA800F07FF816B010BD65
:1025E00070B504460D460021204601F09FFA00BF59
:1025F000204601F0E8FA0028FAD12946204601F0E9
:10260000B6FA0121204601F091FA70BD10B540F2F2
:102610002551154801F064F910B1134801F09EF8F6
:1026200010BD10B51849154801F0DDFA01280FD189
:102630001549124801F0F3FA104801F0BAFA0128DE
:1026400003D100201149087002E001200F490870F1
:1026500010BD00BF0449098801F040010029F9D0EC
:102660000149091D08807047001401400000024024
:1026700000100140241B0020000802402864024092
:10268000893000208A40002000080010201B002014
:102690000948804709480047FEE7FEE7FEE7FEE7F6
:1026A000FEE7FEE7FEE7FEE7FEE7FEE70448054932
:1026B000054A064B704700007503000889010008B1
:1026C000F0500020F0560020F0520020F052002080
:1026D00032490143324A1160704770B5002100232E
:1026E0000F22C4781CB32E4C246804F4E064C4F5B3
:1026F000E064C4F30721C1F10404E3B20A41447861
:102700009C40E1B28478144021430C07210E254CF3
:1027100005786155047804F01F050124AC40057864
:102720006D11AD0005F1E025C5F8004109E0047820
:1027300004F01F050124AC401B4D0678761145F8C6
:10274000264070BD194A0A400243154B1B1F1A60F0
:10275000704739B1124A121D12680243104B1B1DFB
:102760001A6006E00E4A121D126882430C4B1B1DB4
:102770001A607047042808D14FF0E021096941F040
:1027800004014FF0E022116107E04FF0E0210969F8
:1027900021F004014FF0E022116170470000FA05BA
:1027A0000CED00E000E400E080E100E080FFFF1FAE
:1027B00010B504469848844208D10121084600F02B
:1027C00086FB0021012000F082FB76E093488442E2
:1027D00008D10121022000F07AFB0021022000F044
:1027E00076FB6AE08E48844208D10121042000F083
:1027F0006EFB0021042000F06AFB5EE08948844201
:1028000008D10121082000F062FB0021082000F01F
:102810005EFB52E08448844208D10121102000F080
:1028200056FB0021102000F052FB46E07F48844216
:1028300008D10121202000F04AFB0021202000F0D7
:1028400046FB3AE07A48844208D10121402000F05A
:102850003EFB0021402000F03AFB2EE07548844208
:1028600008D10121802000F032FB0021802000F0FF
:102870002EFB22E07048844208D10121801500F02F
:1028800026FB0021A01500F022FB16E06B488442D5
:1028900008D10121401500F01AFB0021601500F05D
:1028A00016FB0AE06648844207D10121001500F0BA
:1028B0000EFB0021201500F00AFB10BDF0B50A4602
:1028C00000210023002400BF3DE0012505FA01F3AB
:1028D000156805EA03049C4234D105684F000326BD
:1028E000BE40B543056015794E00B54006683543D6
:1028F00005601579012D02D01579022D16D1856854
:102900004F000326BE40B543856055794E00B54063
:10291000866835438560456801268E40B54345602D
:10292000456896798E40B6B235434560C5684F001C
:102930000326BE40B543C560D5794E00B540C66894
:102940003543C560491C1029BFD3F0BD4FF6FF7158
:1029500001600021017141718171C171704708B539
:102960004FF480320092009A0A430092009AC261AA
:10297000C161009AC261C2690092C269009208BD39
:102980000246002013690B400BB1012000E000203B
:1029900070470146086980B27047024600205369BB
:1029A0000B400BB1012000E0002070470146486950
:1029B00080B2704701837047418370470AB1018339
:1029C00000E0418370474161704742694A4042617B
:1029D0007047F0B5002300244D07ED0E02FA05F311
:1029E000CE1000F1200555F826504E07F70E0F26A1
:1029F000BE40B543CF1000F1200646F82750CE1058
:102A000000F1200555F8265045EA0304CE1000F1E8
:102A1000200545F82640F0BD0000024000040240B9
:102A200000080240000C0240001002400014024066
:102A300000180240001C0240002002400024024016
:102A400000280240F948006840F00100F74908609A
:102A50000020F64908310860F4480068F44908404D
:102A6000F2490860F348091D0860F348EF498431D2
:102A70000860F0481038091D0860EC48006820F430
:102A80008020EA4908600020E8490C310860E749E5
:102A90008C31086070470021E44A921C1170114685
:102AA0000870704710B501460022002300204A112B
:102AB000012A02D1DD4C236808E0022A03D1DB4C55
:102AC0007034236802E0D94C7434236801F01F028B
:102AD000012494401C400CB1012000E0002010BDF6
:102AE00038B5002000900024002500BF3120FFF7FA
:102AF000D9FF05460098401C00900098B0F5A04F03
:102B000001D0002DF2D03120FFF7CCFF08B1012415
:102B100000E00024204638BD01460020C34A10686A
:102B200020F0F80040EAC10010607047C349086017
:102B300070470021BD4A703211701170012802D017
:102B400004280AD104E00121B84A7032117005E06E
:102B50000521B64A7032117000E000BF00BF704717
:102B6000B7490860704770B5049C41EA8215012698
:102B7000C6EB530645EA0645054345EA0465AB4EF8
:102B8000361D356070BDAD4908667047820142EA66
:102B90000172A64B84331A607047A8498866704753
:102BA00010B5830143EA016343EA02739F4C883402
:102BB000236010BDA14908677047A049C8647047E9
:102BC00002460020994B0833186820F0EC6042EA76
:102BD00001031843954B08331860704702460020E4
:102BE000924B0833186820F0784042EA01031843FA
:102BF0008E4B083318607047014600208B4A08321C
:102C0000106820F0030008431060704787480830C0
:102C1000006800F00C00704701460020834A08322B
:102C2000106820F0F0000843106070470146002053
:102C30007E4A0832106820F4E05008431060704764
:102C400001460020794A0832106820F4604040EACA
:102C5000C10010607047F0B5002100220024022559
:102C600000260223714F08373F6807F00C0121B19D
:102C7000042905D0082937D105E0724F076036E0F6
:102C8000714F076033E0694F3F1D3F68C7F38056BF
:102C9000664F3F1D3F6807F03F036EB16A4FB7FBB9
:102CA000F3F7DFF888C10CF1040CDCF800C0CCF3BA
:102CB000881C07FB0CF40CE0624FB7FBF3F7DFF85E
:102CC0006CC10CF1040CDCF800C0CCF3881C07FBD1
:102CD0000CF4564F3F1D3F68C7F301477F1C7D0032
:102CE000B4FBF5F7076002E0564F076000BF00BF76
:102CF0004E4F08373F6807F0F0010909534F7A5CDF
:102D00000768D7404760494F08373F6807F4E051EC
:102D1000890A4E4F7A5C4768D7408760434F08372F
:102D20003F6807F46041490B484F7A5C4768D740D9
:102D3000C760F0BD002100F44072B2F5407F0AD1B7
:102D40003A4A0832116821F4F811414A024011430D
:102D5000364A08321160354A70321268C0F30B03EC
:102D60001A43324B70331A60704735494439086052
:102D700070473349403908607047364908607047EA
:102D800001460020294A8C32106820F01F004A1E9C
:102D90001043264A8C321060704701460020234AB7
:102DA0008C32106820F4F8504A1E40EA02201F4A74
:102DB0008C3210607047014600201C4A8C3210682B
:102DC00020F4401008431060704701460020174A65
:102DD0008C32106820F440000843106070470146B0
:102DE0000020124A8C32106820F4403008431060F2
:102DF000704719490860704739B10C4A303212687F
:102E000002430A4B30331A6006E0084A3032126837
:102E10008243064B30331A607047F9B1034A3432AB
:102E200012680243014B34331A601CE00038024040
:102E3000FFFFF6EA10300024003000200000474277
:102E4000800E47420024F40000127A00291B002063
:102E5000FFFCFF0F5C014742E01147428F4A1268B6
:102E600082438E4B1A60704739B18C4A121D12682A
:102E700002438A4B1B1D1A6006E0884A121D126825
:102E80008243864B1B1D1A60704739B1834A0C324E
:102E900012680243814B0C331A6006E07F4A0C3201
:102EA000126882437D4B0C331A60704739B17B4AFC
:102EB000103212680243794B10331A6006E0774AE9
:102EC000103212688243754B10331A60704739B163
:102ED000724A243A12680243704B243B1A6006E09F
:102EE0006E4A243A126882436C4B243B1A60704746
:102EF00039B16A4A203A12680243684B203B1A6093
:102F000006E0664A203A12688243644B203B1A600E
:102F1000704739B1614A1C3A126802435F4B1C3B4F
:102F20001A6006E05D4A1C3A126882435B4B1C3B08
:102F30001A60704739B1594A143A12680243574B24
:102F4000143B1A6006E0554A143A12688243534B08
:102F5000143B1A60704739B1504A103A1268024364
:102F60004E4B103B1A6006E04C4A103A12688243FE
:102F70004A4B103B1A60704739B1484A1C321268FC
:102F80000243464B1C331A6006E0444A1C32126866
:102F90008243424B1C331A60704739B13F4A20329A
:102FA000126802433D4B20331A6006E03B4A203250
:102FB00012688243394B20331A60704739B1374A5F
:102FC000243212680243354B24331A6006E0334A38
:102FD000243212688243314B24331A60704739B16E
:102FE0002E4A2C32126802432C4B2C331A6006E016
:102FF0002A4A2C3212688243284B2C331A607047BD
:1030000039B1264A303212680243244B30331A60F9
:1030100006E0224A303212688243204B30331A6075
:103020007047012808D11D493C31096841F0080169
:103030001A4A3C32116007E018493C31096821F016
:103040000801164A3C321160704739B1134A273AD9
:1030500012780243114B273B1A7006E00F4A273AB9
:10306000127882430D4B273B1A7070470B48403053
:10307000006840F08070094940310860704701469F
:103080000020064A283A12680A400AB1012000E0EE
:1030900000207047014926390870704734380240D3
:1030A00010B50446FB48844208D101218014FFF783
:1030B00052FF0021A014FFF74EFF3CE0F648844287
:1030C00008D101210014FFF735FF00212014FFF77C
:1030D00031FF30E0F148844208D10121C013FFF7ED
:1030E00029FF0021E013FFF725FF24E0EC4884428C
:1030F00008D101214014FFF72EFF00216014FFF7D3
:103100002AFF18E0E748844209D101210805FFF7AA
:1031100022FF00214FF48010FFF71DFF0BE0E24873
:10312000844208D101214805FFF715FF00214FF423
:103130000010FFF710FF10BD10B50022028802F446
:1031400041520B884C8823438C882343CC882343EB
:103150000C8923434C8923438C892343CC89234303
:103160001A430280838B4FF2FF74234083830B8AC0
:10317000038210BD2DE9F04F0025022300244FF0FB
:10318000010900220026002794469046B0F81CA0B2
:103190004FF2400B0AEA0B0AA0F81CA04FF0020AFB
:1031A000A0F820A0858BD1F808A0BAF1020F01D1B8
:1031B00000BF82E0B1F804A0BAF1000F02D14FF0D5
:1031C000010901E04FF00209DFF8E0A2DAF800A0FF
:1031D0000AF4000ABAF1000F09D0DFF8D0A2DAF839
:1031E00000A02AF4000ADFF8C4B2CBF800A0DFF890
:1031F000BCA20AF17C0ADAF800A0CAF3881CDFF846
:10320000ACA20AF17C0ADAF800A0CAF30278DFF86F
:103210009CA2AAF1040ADAF800A00AF03F07DFF83E
:103220008CA2AAF1040ADAF800A00AF4800ABAF51E
:10323000800F08D1DFF878A2BAFBF7FA0AFB0CFA84
:10324000BAFBF8F607E0DFF86CA2BAFBF7FA0AFB64
:103250000CFABAFBF8F6B1F806A0BAF5007F0ED169
:103260004FEA162A0AEB8A0A4FEA4A0AD1F808B04E
:10327000BAFBFBFA0AF1050A1FFA8AF20FE04FEADD
:10328000491AB6FBFAFA0AEB8A0A4FEA4A0AD1F857
:1032900008B0BAFBFBFA0AF1050A1FFA8AF24FF0EE
:1032A0000A0AB2FBFAF202F00104A2EB040ACAF322
:1032B0004F034FF6FF7A0AEA0424022B01DBFF2BAF
:1032C00001DD02230024B1F806A04AEA040A4AEA12
:1032D000030AA0F820A0B1F804A0B1F80CB04AEAA3
:1032E0000B0AB1F802B04AEA0B0AB1F800B04AEA98
:1032F0000B0A4AF4006A4AEA05058583BDE8F08FA7
:103300000021018041808180C180018141818181D2
:10331000C1810721018270470021018041808180A5
:10332000C1800221816000218181704721B1028822
:1033300042F04002028004E002884FF6BF731A4058
:103340000280704721B1828B42F48062828304E064
:10335000828B4FF6FF331A408283704702884FF208
:10336000FF731A40028002880A4302807047B1F559
:10337000804F04D1028842F48042028004E0028837
:103380004BF6FF731A40028070474FF6FF6291427E
:1033900004D0028842F48072028004E002884FF672
:1033A000FF631A400280704721B1828842F0040214
:1033B000828004E082884FF6FB731A408280704757
:1033C00021B1828842F01002828004E082884FF6A8
:1033D000EF731A408280704730B500220023848B3F
:1033E0004FF240052C40848302240484828B0C8895
:1033F000B4F5007F01D00C8814B94FF4807308E055
:103400000C88B4F5407F03D00C88B4F5807F00D1E0
:1034100000238C888D892C434D882C431C4344F415
:1034200000642243828330BD0146888970478181D0
:10343000704721B1028842F40052028004E0028801
:103440004DF6FF731A4002807047018841F48051A5
:103450000180704702460020012901D0108B00E056
:10346000908A70470146088A70471AB183880B43D7
:10347000838002E083888B438380704730B50024CB
:1034800000230C110125A540ABB2AAB185881D43CC
:10349000858014E00030014000380040003C0040CE
:1034A00000340140005001400054014008380240FF
:1034B00000127A000024F40085889D43858030BD89
:1034C0000246002013890B400BB1012000E00020D0
:1034D0007047CA4302817047F0B5024600200024BD
:1034E0000023002501F00F070126BE40B4B20B11E6
:1034F00001269E40B3B2968806EA03051689264047
:1035000016B10DB1012000E00020F0BD10B5002281
:1035100001F00F040123A3409AB2D343038110BDED
:1035200010B50446FA48844208D101211020FFF763
:1035300012FD00211020FFF70EFD57E0F5488442F0
:1035400009D101214804FFF7F5FC00214FF40030B8
:10355000FFF7F0FC4AE0F048844209D101218804D9
:10356000FFF7E8FC00214FF48020FFF7E3FC3DE08B
:10357000EA48844209D10121C804FFF7DBFC00219D
:103580004FF40020FFF7D6FC30E0E548844209D133
:1035900001210805FFF7CEFC00214FF48010FFF752
:1035A000C9FC23E0DF48844208D101212020FFF735
:1035B000D2FC00212020FFF7CEFC17E0DA4884423D
:1035C00009D101218807FFF7B5FC00214FF08040A9
:1035D000FFF7B0FC0AE0D548844207D1012140053D
:1035E000FFF7A8FC00216005FFF7A4FC10BD2DE942
:1035F000FF4705460E460024A14600BFA046B089FD
:1036000000B100BF2C8A24F44054F08804432C827B
:10361000AC8941F20C608443B088318908437189D8
:1036200008430443AC81AC8A24F44074B089044359
:10363000AC826846FFF70FFBB548854202D0B94817
:10364000854202D1DDF80C9001E0DDF80890A889F0
:1036500000F4004040B109EBC90000EB09103168EB
:103660004900B0FBF1F707E009EBC90000EB0910D6
:1036700031688900B0FBF1F76420B7FBF0F004017A
:103680002009642101FB1078A88900F4004040B1B2
:10369000322000EBC800B0FBF1F000F0070004435B
:1036A00008E0322000EB08106421B0FBF1F000F0DC
:1036B0000F0004432C81BDE8FF874FF416510160D1
:1036C00000218180C18001810C2141810021818103
:1036D000704710B502460020108A20F470600B88F5
:1036E0004C8823438C882343CC882343184310827F
:1036F00010BD0021018041808180C180704721B1CF
:10370000828942F40052828104E082894DF6FF737F
:103710001A4082817047028B02F47F420283028B3F
:103720000A430283704721B1828942F400428281B8
:1037300003E08289C2F30E028281704721B1828A3E
:1037400042F40062828204E0828A4FF2FF731A40E0
:1037500082827047C1F308028280704701468888E0
:10376000C0F308007047028A4FF6F0731A400282D5
:10377000028A0A430282704721B1828942F0020222
:10378000828104E082894FF6FD731A40828170477E
:1037900082894FF2FF731A40828182890A438281B3
:1037A0007047028A4FF6DF731A400282028A0A4388
:1037B0000282704721B1028A42F48042028204E010
:1037C000028A4BF6FF731A4002827047818941F0EA
:1037D00001018181704721B1828A42F00802828210
:1037E00004E0828A4FF6F7731A4082827047028B98
:1037F000D2B20283028B42EA01220283704721B1D6
:10380000828A42F02002828204E0828A4FF6DF73CD
:103810001A408282704721B1828A42F0100282826D
:1038200004E0828A4FF6EF731A4082827047828AE0
:103830004FF6FB731A408282828A0A438282704763
:1038400021B1828A42F00202828204E0828A4FF62B
:10385000FD731A40828270471AB1838A0B438382B8
:1038600002E0838A8B4383827047F0B503460024CD
:1038700000260025002040F66A17B94200D100BF9B
:103880001846C1F3421401F01F06012707FA06F596
:10389000012C01D10C3004E0022C01D1103000E0E9
:1038A00014301AB107682F43076002E00768AF437E
:1038B0000760F0BD02460020B1F5007F00D100BFD7
:1038C00013880B400BB1012000E00020704701F489
:1038D0000072B2F5007F00D100BFCA43028070477A
:1038E00070B50246002400230025002040F66A1629
:1038F000B14200D100BFC1F3421501F01F03012600
:1039000006FA03F3012D13D19689334017E0000026
:10391000001001400044004000480040004C0040BE
:10392000005000400014014000780040007C00403E
:10393000022D02D1168A334001E0968A33400C12E0
:10394000012606FA04F41688344013B10CB10120A4
:1039500000E0002070BD10B50022002340F66A147C
:10396000A14200D100BF0A1201249440A3B2DC435B
:10397000048010BD016821F0010101600021016097
:1039800041608160C160016121214161DB49884260
:1039900004D13D21D94A103A91608CE0D7491831C1
:1039A000884205D14FF47461D44A103A916082E0A4
:1039B000D2493031884205D14FF47411CF4A103AC0
:1039C000916078E0CD494831884205D14FF074616B
:1039D000CA4A103A91606EE0C8496031884204D109
:1039E000C749C64A103AD16065E0C4497831884277
:1039F00004D1C449C14A103AD1605CE0BF4990315A
:103A0000884204D1C049BD4A103AD16053E0BB4955
:103A1000A831884205D14FF03D51B84A103AD160E3
:103A200049E0BA49884204D13D21B84A083A1160B8
:103A300041E0B6491831884205D14FF47461B34A68
:103A4000083A116037E0B1493031884205D14FF46E
:103A50007411AE4A083A11602DE0AC4948318842F1
:103A600005D14FF07461A94A083A116023E0A749D3
:103A70006031884204D1A249A44A121F11601AE0A1
:103A8000A2497831884204D19E49A04A121F116090
:103A900011E09E499031884204D19B499B4A121FF4
:103AA000116008E09949A831884204D14FF03D5196
:103AB000964A121F1160704710B500220268944B9D
:103AC0001A40CC680B6823434C6923438C69234319
:103AD000CC6923430C6A23434C6A23438C6A2343F7
:103AE0004C6B23438C6B23431A430260426922F0E0
:103AF0000702D1E90B3423431A4342610B69436047
:103B00004B6883608B68C36010BD00210160416019
:103B10008160C160016141618161C1610162416295
:103B20008162C162016341638163704721B10268B0
:103B300042F00102026003E0026822F0010202602A
:103B4000704721B1026842F40042026003E002685B
:103B500022F400420260704721B1026842F0200264
:103B6000026003E0026822F02002026070474160B8
:103B700070470146486880B2704722B1036843F439
:103B80000023036003E0036823F400230360016162
:103B9000704721B1026842F48022026003E00268AB
:103BA00022F48022026070470AB1016100E0C16026
:103BB0007047014600200A6802F400220AB1012081
:103BC00000E000207047014600200A6802F0010270
:103BD0000AB1012000E000207047014600204A6938
:103BE00002F03800704730B503460A460020002432
:103BF000464DAB4202D24149103901E043491039E8
:103C000002F000550DB14C6800E00C68414D2C40AD
:103C100004EA02050DB1012000E0002030BD02469B
:103C20003A4B9A4202D23548103801E037481038F2
:103C300001F000531BB1374B0B40C36002E0354B22
:103C40000B408360704710B501F080034BB122B187
:103C5000436943F08003436103E0436923F0800339
:103C6000436180290BD02AB1036801F01E0423436D
:103C7000036004E0036801F01E04A343036010BD69
:103C800070B50246002000240025204EB24202D228
:103C90001A4B103B01E01D4B103B1F4E0E4036B13E
:103CA0001E2606EAD124166806EA040502E05669D3
:103CB00006F0800501F000560EB15C6800E01C685B
:103CC000144E344004EA010616B10DB1012000E0A3
:103CD000002070BD02460D4B9A4202D207481038B0
:103CE00001E00A48103801F000531BB1094B0B40AA
:103CF000C36002E0074B0B408360704710600240D6
:103D00003D000020400F002000003D2010640240D4
:103D10003F801CF07D0F7D0F3C0F3C0F7047000073
:103D20000FB4044910B503AA029800F03FF910BC83
:103D30005DF814FB141B00202DE9F0410E460446EB
:103D4000002020622046E168884730B3252805D04E
:103D5000D4E901219047206A401CF2E7E16820463F
:103D600000278847050018D0A5F14100192802D87E
:103D700020354FF400673246294620462760FCF77D
:103D80005DFA40B1012804D0F61D26F0070608367A
:103D9000D8E7361DD6E72846DAE7206ABDE8F08185
:103DA00070B50C460546012A05D02878800600D556
:103DB000EA69002302E0012305E05B1C934202D282
:103DC000E05C0028F9D1A869E618C01AA861286A41
:103DD000184428622846AFF3008004E0D5E90121A9
:103DE00014F8010B9047B442F8D32846AFF3008093
:103DF00070BD00002DE9F0410646002410687529C9
:103E0000314616A510D0AFF30080002802DA4042F8
:103E100013A507E031688A0701D512A502E049071A
:103E200004D511A5012401E0AFF3008000210A228E
:103E300006F1240709E0B0FBF2FCB0FBF2F302FB51
:103E40001C00303078541846491C0028F3D1234612
:103E50002A463046BDE8F04100F038B800000000C6
:103E60002D0000002B0000002000000070B504466B
:103E70000D4621461068AFF300802188090502D560
:103E80000F4A7A4402E00E4A7A440E32002104F1CD
:103E9000240305E000F00F060009965D5E54491CFE
:103EA0000028F7D120780023000704D5702D02D018
:103EB00009B1022311322046BDE8704000F006B877
:103EC0003829000070477047704770472DE9F04768
:103ED0000D4699469246044600F12408016888067A
:103EE00004D5E06921F01001216000E00120A84222
:103EF00001DD471B00E00027A1697A1902EB0900E8
:103F0000081AA0612078C00602D42046AFF30080D2
:103F1000002608E0D4E901211AF806009047206A3B
:103F2000401C761C20624E45F4DB2078C0060AD582
:103F30002046AFF3008006E0D4E90121302090470D
:103F4000206A401C2062381EA7F10107F4DC07E05C
:103F5000D4E9012118F805009047206A401C20622E
:103F6000281EA5F10105F3DC2046AFF30080207880
:103F7000000602D50220BDE8F0870120FBE710B55E
:103F8000436913B1AFF3008001E0FFF709FF01209F
:103F900010BD127800F124010A7000224A7001223B
:103FA000EDE711684FF0FF32E9E70000074B70B50D
:103FB0000D467B4400F011F80446284600F020F836
:103FC00010B14FF0FF3070BD204670BDDDE3FFFF44
:103FD00001694A1C02610878704700B58FB0CDE9CD
:103FE00001310021059105497944CDE903101146BD
:103FF0006846FFF7A1FE0FB000BD0000E5FFFFFF20
:10400000007B00F080007047754600F02BF8AE464C
:1040100005006946534620F00700854618B020B5D4
:10402000FEF744FBBDE820404FF000064FF00007CC
:104030004FF000084FF0000B21F00701AC46ACE850
:10404000C009ACE8C009ACE8C009ACE8C0098D46BD
:10405000704710B50446AFF300802046BDE810401D
:10406000FCF706B9004870478C5000204FF04070B4
:10407000E1EE100A70470000000000000000002F71
:10408000000000000700070000147F147F140024C4
:104090002A7F2A12006264081323003649552250F1
:1040A00000000503000000001C2241000000412226
:1040B0001C000014083E08140008083E0808000010
:1040C00000A0600000080808080800006060000008
:1040D000002010080402003E5149453E0000427F86
:1040E0004000004261514946002141454B310018D2
:1040F00014127F10002745454539003C4A49493094
:10410000000171090503003649494936000649494D
:10411000291E000036360000000056360000000858
:104120001422410000141414141400004122140835
:1041300000020151090600324959513E007C12111A
:10414000127C007F49494936003E41414122007FAF
:104150004141221C007F49494941007F0909090169
:10416000003E4149497A007F0808087F0000417FEE
:104170004100002040413F01007F08142241007FA0
:1041800040404040007F020C027F007F0408107F07
:10419000003E4141413E007F09090906003E415170
:1041A000215E007F0919294600464949493100012D
:1041B000017F0101003F4040403F001F2040201F81
:1041C000003F4038403F0063140814630007087044
:1041D000080700615149454300007F4141000055F7
:1041E0002A552A55000041417F00000402010204C3
:1041F00000404040404000000102040000205454B0
:104200005478007F484444380038444444200038FF
:104210004444487F00385454541800087E09010271
:104220000018A4A4A47C007F080404780000447D46
:104230004000004080847D00007F10284400000082
:10424000417F4000007C04180478007C0804047856
:1042500000384444443800FC242424180018242442
:1042600018FC007C0804040800485454542000043E
:104270003F444020003C4040207C001C2040201C4B
:10428000003C4030403C004428102844001CA0A0C2
:10429000A07C004464544C44141414141414FEFF01
:1042A000028002800380038002800280FEFF000003
:1042B00000F8000000000000003330000000001093
:1042C0000C06100C0600000000000000000040C0BA
:1042D0007840C0784000043F04043F0404000070AC
:1042E00088FC08300000001820FF211E0000F008A4
:1042F000F000E018000000211C031E211E0000F049
:104300000888700000001E21232419272110101690
:104310000E0000000000000000000000000000008F
:1043200000E018040200000000071820400000020E
:104330000418E00000000040201807000000404082
:1043400080F0804040000202010F010202000000E4
:1043500000F0000000000101011F01010100000048
:1043600000000000000080B07000000000000000AD
:104370000000000000000001010101010101000036
:1043800000000000000000303000000000000000CD
:10439000000080601804006018060100000000E0C2
:1043A00010080810E000000F102020100F0000106F
:1043B00010F8000000000020203F202000000070C6
:1043C00008080888700000302824222130000030BE
:1043D0000888884830000018202020110E000000B6
:1043E000C02010F8000000070424243F240000F837
:1043F0000888880808000019212020110E0000E01C
:10440000108888180000000F112020110E000038BD
:104410000808C83808000000003F000000000070D5
:10442000880808887000001C222121221C0000E05E
:1044300010080810E0000000312222110F000000D7
:1044400000C0C0000000000000303000000000008C
:1044500000800000000000008060000000000000FC
:104460008040201008000001020408102000404095
:1044700040404040400004040404040404000008D8
:10448000102040800000002010080402010000708D
:1044900048080808F0000000003036010000C03075
:1044A000C828E810E0000718272423140B00000098
:1044B000C038E0000000203C23020227382008F822
:1044C000888888700000203F202020110E00C03016
:1044D000080808083800071820202010080008F8ED
:1044E00008080810E000203F202020100F0008F8E6
:1044F0008888E8081000203F20202320180008F8B2
:104500008888E8081000203F200003000000C03029
:1045100008080838000007182020221E020008F8AA
:1045200008000008F808203F210101213F20000871
:1045300008F8080800000020203F202000000000AC
:104540000808F8080800C08080807F00000008F894
:1045500088C028180800203F20012638200008F8CD
:10456000080000000000203F20202020300008F834
:10457000F800F8F80800203F003F003F200008F84E
:1045800030C00008F808203F200007183F00E01066
:1045900008080810E0000F10202020100F0008F875
:1045A00008080808F000203F210101010000E01088
:1045B00008080810E0000F18242438504F0008F8AD
:1045C000888888887000203F2000030C302000700D
:1045D0008808080838000038202121221C0018080B
:1045E00008F8080818000000203F2000000008F824
:1045F00008000008F808001F202020201F0008786D
:10460000880000C83808000007380E010000F808CC
:1046100000F80008F800033C0700073C03000818F6
:1046200068808068180820302C03032C302008385C
:10463000C800C83808000000203F20000000100813
:104640000808C8380800203826212020180000005B
:1046500000FE020202000000007F40404000000C0B
:1046600030C000000000000000010638C000000259
:104670000202FE000000004040407F0000000000F9
:10468000040202020400000000000000000000001C
:104690000000000000008080808080808080000218
:1046A0000204000000000000000000000000000004
:1046B0008080808000000019242222223F2008F8F8
:1046C000008080000000003F112020110E0000003B
:1046D000008080800000000E1120202011000000CA
:1046E00000808088F800000E112020103F2000007C
:1046F000808080800000001F222222221300008080
:1047000080F0888888180020203F202000000000CA
:10471000808080808000006B94949493600008F8FF
:10472000008080800000203F210000203F2000808A
:104730009898000000000020203F2020000000008A
:1047400000809898000000C08080807F000008F8FA
:10475000000080808000203F24022D3020000008CF
:1047600008F8000000000020203F2020000080808A
:10477000808080808000203F20003F20003F80809C
:10478000008080800000203F210000203F200000AA
:10479000808080800000001F202020201F0080805B
:1047A00000808000000080FFA12020110E0000008A
:1047B000008080808000000E112020A0FF8080807B
:1047C00080008080800020203F2120000100000028
:1047D00080808080800000332424242419000080FD
:1047E00080E0808000000000001F2020000080800A
:1047F000000000808000001F202020103F208080CB
:1048000080000080808000010E300806010080805A
:104810000080008080800F300C030C300F0000807F
:104820008000808080000020312E0E3120008080AA
:1048300080000080808080818E70180601000080DA
:104840008080808080000021302C222130000000F8
:104850000000807C020200000000003F4040000099
:104860000000FF00000000000000FF000000000248
:10487000027C800000000040403F00000000000675
:10488000010102020404000000000000000000FC1E
:10489000FC0C0CFCFC00003F3F30303F3F000000B0
:1048A000000000FCFC0000000000003F3F00008C06
:1048B0008C8C8CFCFC00003F3F3131313100008C8E
:1048C0008C8C8CFCFC0000313131313F3F0000FC0E
:1048D000FC8080FCFC0000010101013F3F0000FC66
:1048E000FC8C8C8C8C0000313131313F3F0000FC5E
:1048F000FC8C8C8C8C00003F3F31313F3F00000C22
:104900000C0C0CFCFC0000000000003F3F0000FC11
:10491000FC8C8CFCFC00003F3F31313F3F0000FC31
:10492000FC8C8CFCFC0000313131313F3F00000039
:10493000006060000000000000060600000000F8B3
:10494000F818181818181818181818F8F80000FF90
:10495000FF00000000000000000000FFFF0000FF5B
:10496000FF00000000000000000000FFFF00001F2B
:104970001F181818181818181818181F1F000000EA
:104980000000000000F8F800000000000000000037
:104990000000000000FFFF00000000000000000019
:1049A0000000000000FFFF00000000000000000009
:1049B00000000000001F1F000000000000000018A1
:1049C0001818181818181818181818F8F80000806F
:1049D0008080808080808080808080FFFF0000FF5A
:1049E000FF01010101010101010101010100001F9D
:1049F0001F18181818181818181818181800001860
:104A00001818181818181818181818F8F80000802E
:104A10008080808080808080808080FFFF00000117
:104A20000101010101010101010101FFFF00001865
:104A300018181818181818181818181F1F0000F838
:104A4000F800000000000000000000F8F80000FF7F
:104A5000FF80808080808080808080FFFF00000158
:104A60000101010101010101010101FFFF0000003D
:104A700000000000000000000000001F1F0000F800
:104A8000F81818181818181818181818180000FF0F
:104A9000FF80808080808080808080808000000116
:104AA0000101010101010101010101FFFF000018E5
:104AB00018181818181818181818181F1F0000F8B8
:104AC000F81818181818181818181818180000FFCF
:104AD000FF8080808080808080808080800000FFD8
:104AE000FF01010101010101010101FFFF00001FA0
:104AF0001F181818181818181818181F1F00001851
:104B00001818181818181818181818F8F8000000AD
:104B10000000000000000000000000FFFF00000097
:104B20000000000000000000000000FFFF00000087
:104B300000000000000000000000001F1F0000F83F
:104B4000F818181818181818181818F8F80000FF8E
:104B5000FF80808080808080808080FFFF0000FF59
:104B6000FF01010101010101010101FFFF00001F1F
:104B70001F181818181818181818181F1F0000F8F0
:104B8000F818181818181818181818F8F80000FF4E
:104B9000FF80808080808080808080FFFF00000117
:104BA0000101010101010101010101FFFF000018E4
:104BB00018181818181818181818181F1F000000AF
:104BC00000000000000000000000000000000000E5
:104BD0000000001F1F1F1F1F00000000000000003A
:104BE000000000F0F0F0F0F0000000000000000015
:104BF0000000000101010101000000000000FF01B0
:104C00000101010101010101010101010101010194
:104C10000101010101010101010101010101010184
:104C20000101010101010101010101010101010174
:104C30000101010101010101010101010101010164
:104C40000101010101010101010101010101010154
:104C50000101010101010101010101010101010144
:104C60000101010101010101010101010101010134
:104C700001010101010101010101010101FFFF0029
:104C80000000000000000000000000000000000024
:104C90000020440800184828C80828481800404048
:104CA000FC4040FC0000F80000FC004040A0908860
:104CB00084889020404000004044D820F0ACA8E810
:104CC000B8A8E0000000C07C5454545454547C40B4
:104CD000400000F0909090FC909090F000000080D8
:104CE0008888888888E8A8988C8880000000000060
:104CF00000000000000000000000000000FFFF00B6
:104D000000000000000000000000000000000000A3
:104D100000043E01101109053F0509111100081892
:104D20000F24140F00000F00003F0020222A32221F
:104D30003F22322A2220000020100F102824232096
:104D40002F282A2C00300F043D2515150D152D2474
:104D5000240000070404041F242424272038000012
:104D600000000000203F00000000000000000000E4
:104D700000000000000000000000000000FFFF80B5
:104D80008080808080808080808080808080808023
:104D90008080808080808080808080808080808013
:104DA0008080808080808080808080808080808003
:104DB00080808080808080808080808080808080F3
:104DC00080808080808080808080808080808080E3
:104DD00080808080808080808080808080808080D3
:104DE00080808080808080808080808080808080C3
:104DF00080808080808080808080808080FFFF0134
:104E00000101010101010101010101010101010192
:104E1000018141212161010121E1E101E1E1210162
:104E200001010101010121E1212121610101212172
:104E3000E101010101010101010101010101010182
:104E400001010101C1010101010101010101010192
:104E50000101010101010101010101010101010142
:104E60000121010101010101010101010101010112
:104E700001010101010101010101010101FFFF0027
:104E80000000000000000000000000000000000022
:104E9000000F1020241C0400203F013E013F200091
:104EA000000000000000203F2222273000002020C8
:104EB0003F202000001E2525251600001E2121214F
:104EC000130001011F2121000000213F22210100C8
:104ED000001E2121211E00213F2201013E20002130
:104EE000213F202000001E2121211300000000008E
:104EF00000000000000000000000000000FFFF00B4
:104F000000000000000000000000000000000000A1
:104F100000F0080404040C00F008040408F0000089
:104F20000000000000000080800000000000000081
:104F30000000000000000000000004FC040000006D
:104F400000000C04FC040C0004FC040408F0000045
:104F50000000000000000000000000000000000051
:104F60000000000000000000000000000000000041
:104F700000000000000000000000000000FFFF80B3
:104F80008080808080808080808080808080808021
:104F900080818284848482808182848482818080F2
:104FA00086868080808080858380808080808080ED
:104FB00080808080808080808080848784848486D4
:104FC00080808084878480808487848482818080BC
:104FD00080808080808080808080808080808080D1
:104FE00080808080808080808080808080808080C1
:104FF00080808080808080808080808080FF000032
:1050000000000000000000000000000000003F4021
:1050100000000000000000003000400030004000B0
:10502000000009000BC03D000BC03D00090018C086
:1050300024407FE0224031800000180024C01B0083
:105040000D803240018003801C4027401C800740B7
:1050500000401000600000000000000000000000A0
:10506000000000001F802040402000004020204021
:105070001F8000000000090006001F8006000900D4
:105080000000040004003F80040004000000001041
:1050900000600000000000000000040004000400A4
:1050A00004000400000000000040000000000000B8
:1050B0000000002001C006003800400000001F80F2
:1050C0002040204020401F800000000010403FC0D2
:1050D00000400000000018C0214022402440184039
:1050E000000010802040244024401B80000002006B
:1050F0000D0011003FC0014000003C8024402440CE
:105100002440238000001F8024402440344003803A
:1051100000003000200027C03800200000001B8065
:105120002440244024401B8000001C0022C0224058
:1051300022401F8000000000000008400000000026
:1051400000000000000004600000000000000000FB
:1051500004000A00110020804040090009000900F5
:1051600009000900000000004040208011000A00F2
:1051700004001800200023402400180000001F80B5
:105180002040274029401F400000004007C0390050
:105190000F0001C0004020403FC0244024401B803D
:1051A00000001F8020402040204030800000204030
:1051B0003FC0204020401F80000020403FC02440CE
:1051C0002E4030C0000020403FC024402E00300060
:1051D00000000F0010802040224033800200204059
:1051E0003FC0040004003FC02040204020403FC09A
:1051F0002040204000000060202020203FC02000F0
:10520000200020403FC024400B0030C02040204000
:105210003FC020400040004000C03FC03C0003C0F1
:105220003C003FC0000020403FC00C4023003FC076
:1052300020001F802040204020401F800000204090
:105240003FC024402400180000001F80214021405E
:1052500020E01FA0000020403FC02440260019C0CD
:10526000004018C02440244022403180000030001B
:1052700020403FC020403000000020003F80004020
:1052800000403F80200020003E0001C007003800A1
:105290002000380007C03C0007C038000000204054
:1052A00039C0060039C0204000002000384007C047
:1052B000384020000000304021C02640384020C047
:1052C0000000000000007FE04020402000000000BF
:1052D00070000C00038000400000000040204020CF
:1052E0007FE00000000000002000400020000000DF
:1052F000000000100010001000100010001000004E
:105300000000400000000000000000000280054096
:10531000054003C0004020003FC00440044003801B
:10532000000000000380044004400640000000002C
:105330000380044024403FC000400000038005403B
:10534000054003400000000004401FC024402440EA
:105350002000000002E005500550065004202040C7
:105360003FC00440040003C000400000044027C0C8
:1053700000400000000000100010041027E00000B2
:10538000000020403FC00140070004C0044020400E
:1053900020403FC000400040000007C0040007C09C
:1053A000040003C00000044007C00440040003C020
:1053B000004000000380044004400380000004100B
:1053C00007F0045004400380000000000380044004
:1053D000045007F00010044007C00240040004001D
:1053E0000000000006400540054004C00000000029
:1053F00004001F80044000400000040007800040BB
:10540000044007C000400400070004C001800600FB
:105410000400060001C0070001C0060000000440AF
:1054200006C0010006C0044000000410071004E09C
:105430000180060004000000044005C0064004404E
:1054400000000000000004007BE04020000000009D
:1054500000000000FFF000000000000040207BE0A2
:1054600004000000000040008000400020002000F8
:1054700040000000000000000000000000000000EC
:1054800000000000000000001FCC000C0000000025
:1054900000000000080030006000080030006000DC
:1054A0000000022003FC1E20022003FC1E2002201C
:1054B000000000000E1811043FFF10840C7800005B
:1054C00000000F0010840F3800C00778188400789F
:1054D000000000780F8410C411240E9800E40084AA
:1054E00000080800680070000000000000000000D4
:1054F000000000000000000007E01818200440022F
:105500000000000040022004181807E0000000001E
:1055100000000240024001800FF001800240024082
:1055200000000080008000800FF800800080008074
:1055300000000001000D000E00000000000000004F
:10554000000000000080008000800080008000805B
:1055500000800000000C000C0000000000000000B3
:10556000000000000006001800600180060018001E
:105570002000000007F0080810041004080807F0D5
:1055800000000000080408041FFC000400040000E0
:10559000000000000E0C10141024104411840E0C96
:1055A000000000000C1810041104110412880C7083
:1055B0000000000000E00320042408241FFC002455
:1055C000000000001F98108411041104108810704E
:1055D0000000000007F0088811041104188800700A
:1055E000000000001C00100010FC13001C00100044
:1055F000000000000E3811441084108411440E384D
:10560000000000000700088C10441044088807F0D0
:105610000000000000000000030C030C000000006C
:105620000000000000000001010600000000000072
:10563000000000000080014002200410080810044F
:10564000000002200220022002200220022002206C
:10565000000000001004080804100220014000802F
:10566000000000000E001200100C106C10800F00E3
:10567000000003E00C1813E4142417C4082807D012
:1056800000000004003C03C41C40074000E4001C70
:10569000000410041FFC1104110411040E88007092
:1056A000000003E00C1810041004100410081C1073
:1056B000000010041FFC100410041004080807F078
:1056C000000010041FFC1104110417C41004081872
:1056D000000010041FFC1104110017C01000080086
:1056E000000003E00C181004100410441C78004063
:1056F000000010041FFC10840080008010841FFC38
:1057000010040000100410041FFC1004100400001A
:10571000000000030001100110011FFE1000100026
:10572000000010041FFC110403801464181C1004F2
:10573000000010041FFC1004000400040004000C0E
:10574000000010041FFC1F0000FC1F001FFC1004C1
:10575000000010041FFC0C04030000E010181FFCE4
:10576000100007F00808100410041004080807F0DF
:10577000000010041FFC10841080108010800F00A7
:10578000000007F0081810241024101C080A07F263
:10579000000010041FFC1104110011C011300E0C88
:1057A000000400000E1C11041084108410441C38E6
:1057B00000001800100010041FFC10041000180056
:1057C000000010001FF810040004000410041FF86B
:1057D000100010001E0011E0001C007013801C005F
:1057E00010001FC0103C00E01F0000E0103C1FC074
:1057F00000001004180C163401C001C01634180C37
:10580000100410001C00130400FC13041C00100002
:1058100000000804101C1064108413041C041018E9
:1058200000000000000000007FFE40024002400235
:105830000000000030000C0003800060001C00032A
:10584000000000004002400240027FFE0000000015
:105850000000000000002000400040004000200048
:105860000000000100010001000100010001000131
:105870000001000040004000200000000000000087
:10588000000000000098012401440144014400FC90
:10589000000410001FFC008801040104008800704F
:1058A0000000000000700088010401040104008869
:1058B00000000000007000880104010411081FFCB2
:1058C0000004000000F8014401440144014400C800
:1058D00000000000010401040FFC11041104110078
:1058E0001800000000D601290129012901C901067B
:1058F000000010041FFC008401000100010400FCF2
:10590000000400000104190419FC00040004000054
:1059100000000000000300010101190119FE000050
:10592000000010041FFC0024004001B4010C01041D
:1059300000000000100410041FFC0004000400001C
:105940000000010401FC0104010001FC010401004C
:1059500000FC010401FC008401000100010400FCC2
:105960000004000000F8010401040104010400F82F
:105970000000010101FF008501040104008800709E
:10598000000000000070008801040104010501FF0F
:1059900000010104010401FC0084010401000180F4
:1059A0000000000000CC01240124012401240198FE
:1059B000000000000100010007F8010401040000DC
:1059C0000000010001F8000400040004010801FCCB
:1059D0000004010001800170000C001001600180D2
:1059E000010001F0010C003001C00030010C01F099
:1059F000010000000104018C00740170018C01049D
:105A00000000010101810171000E00180160018098
:105A1000010000000184010C013401440184010CE7
:105A20000000000000000000000001003EFC4002F9
:105A300040020000000000000000FFFF0000000026
:105A400000000000400240023EFC01000000000097
:105A50000000000060008000800040004000200046
:105A60002000000000000000000000000000000016
:105A70000000000000000000000000000000000026
:105A80000000000000000000000000000000000016
:105A900000000000000F80380FFE380F8038000033
:105AA00000000000000000000000000000000000F6
:105AB0000100000600000C00003800003100000664
:105AC00000000C0000380000300000000000000062
:105AD000000061800067F807F98000618000618044
